:020000040800F2
:10000000481F0020C1010008454900085543000869
:1000100041490008CF070008576B000800000000A6
:10002000000000000000000000000000BB4C0008C1
:10003000FB0B000800000000854A0008814D000805
:10004000DB010008DB010008DB010008DB01000820
:10005000DB010008DB010008DB010008FD0B0008E4
:10006000DB010008DB010008DB010008DB01000800
:10007000DB010008DB010008DB010008DB010008F0
:10008000DB010008DB010008DB010008E5070008D0
:10009000D5070008DB010008DB010008DB010008D0
:1000A000DB010008DB010008DB010008DB010008C0
:1000B000DB010008394F0008DB010008DB01000804
:1000C000DB010008DB010008DB010008DB010008A0
:1000D000DB010008E1580008F15800080159000848
:1000E000DB010008DB010008DB010008DB01000880
:1000F000DB010008DB010008DB010008DB01000870
:10010000DB010008DB010008754F0008DB01000877
:10011000DB010008DB010008DB010008DB0100084F
:10012000DB010008DB010008D10A0008DB01000840
:10013000DB010008DB010008DB01000805080008FE
:10014000F5070008DB010008DB0100088149000811
:10015000DB010008DB010008DB0100081159000881
:10016000DB010008DB010008DB010008DB010008FF
:10017000DB010008DB010008DB01000800000000D3
:10018000DB010008DB010008DB010008DB010008DF
:10019000DB010008DB010008DB010008DB010008CF
:1001A0000000000000000000DB010008DFF80CD0B8
:1001B00000F0D0FA004800479D730008481F002057
:1001C0000648804706480047FEE7FEE7FEE7FEE7F1
:1001D000FEE7FEE7FEE7FEE7FEE7FEE7514E00081A
:1001E000AD01000840EA01039B0703D009E008C9FC
:1001F000121F08C0042AFAD203E011F8013B00F8EC
:10020000013B521EF9D270472DE9FE4F804681EA2C
:100210000300C00F0C46009021F0004123F0004580
:10022000B8EB0200A94105D24046214690461C4643
:100230000B46024623F00040104347D0270DC7F37A
:100240000A00C3F30A510290401A019040286BDA69
:10025000C3F3130040F4801B0098924620B10023A2
:10026000D2EB030A63EB0B0B01985946C0F1400235
:10027000504600F0AAF906460D4650465946019AE6
:1002800000F0C2F910EB08006141002487EA115226
:1002900084EAE7731A4340D0009A62B3019A012AB4
:1002A0004FEA075215DC001B61EB02014FF00042E0
:1002B00002EA0752CDE90042001C41F580113246A6
:1002C0002B4600F0F9F903B0BDE8F08F4046214617
:1002D000F9E7001B61EB0201001C41F580130018D7
:1002E0005B412018A2F5001747EB030140EAD570E7
:1002F000B6196D4111E06D084FEA360645EAC07542
:100300004FEA0752001B61EB0201001C41F580110E
:1003100049084FEA30000019514132462B4603B0DC
:10032000BDE8F04F00F0B9B9009801224000002369
:10033000D0EB020263EBE073009821464FEAE074D1
:10034000B8EB000061EB0401E9E783F000435BE7F1
:1003500081F0004158E72DE9FE4F81EA030404F0E3
:10036000004421F0004100944FF0000B23F00043C3
:1003700050EA01045ED052EA03045BD0C3F30A548E
:10038000C1F30A552C44A4F2F3340194A0FB0254A7
:10039000C1F3130141F48011C3F3130343F4801339
:1003A00001FB024400FB034E840A970A44EA81548D
:1003B00047EA8357A4FB076802958D0A05FB07856A
:1003C0004FEA932C04FB0C542705029D4FEA065874
:1003D00047EA1637B5EB08056EEB070C870E920E51
:1003E00047EA811742EA8312A7FB0201B6EB0B0131
:1003F00064EB00042B0D43EA0C335E1844EB1C50F5
:10040000DA465146E7FB0201C5F313044FEA0B330A
:1004100043EA14534FEA0432019C43EA0603A4F171
:100420000C040294009CCDE900B400F045F903B03F
:10043000BDE8F08F00200146F9E72DE9F04D81EA93
:10044000030404F0004B21F0004514464FF0000A6D
:1004500023F0004150EA050220D054EA01021DD0E9
:10046000C5F30A570246C5F31303C1F31300C1F3E2
:100470000A5640F4801543F48013A7EB0608101BBE
:10048000D64608F2FD3873EB050002D308F10108E7
:1004900001E092185B41B8F1000F03DA0020014639
:1004A000BDE8F08D00204FF48011064684460EE032
:1004B000171B73EB050705D3121B63EB05030643FC
:1004C0004CEA010C49084FEA300092185B4150EAAF
:1004D0000107EDD152EA030012D082EA040083EA58
:1004E0000501084305D0101BAB4106D201220023B1
:1004F00006E000224FF0004302E06FF001025310CB
:100500001AEB06004CEB085110EB0A0041EB0B0113
:10051000BDE8F04D00F0C1B80EB5C10F80EAE07043
:100520000844CA07002140F233438DE80E000A4612
:100530000B4600F0C1F803B000BD0EB540F23341E8
:1005400002910021CDE900110A460B4600F0B4F8F3
:1005500003B000BD70B5C1F30A5201F0004500249C
:10056000C1F3130140F2FF3341F480119A4201DAE2
:10057000002070BD40F233439A42A2F2334203DCC2
:10058000524200F031F800E090402C43F1D040425C
:1005900070BD01F0004330B421F0004150EA010287
:1005A00006D00A0DA2F56072C1F31301002A02DC25
:1005B00030BC00207047440F44EAC104C100E01879
:1005C00030BC00EBC25000F031B8202A04DB203AE6
:1005D00000FA02F1002070479140C2F1200320FA96
:1005E00003F3194390407047202A04DB203A21FA94
:1005F00002F00021704721FA02F3D040C2F120023C
:100600009140084319467047202A06DBCB17203A51
:1006100041FA02F043EAE07306E041FA02F3D04007
:10062000C2F1200291400843194670470029A8BF33
:100630007047401C490008BF20F00100704710B40B
:10064000B0FA80FC00FA0CF050EA010404BF10BCC0
:10065000704749B1CCF1200421FA04F411FA0CF1ED
:1006600018BF012121430843A3EB0C01CB1D4FEA26
:1006700000614FEA102042BF002010BC704700EB21
:10068000C35010440029A4BF10BC7047401C49004F
:1006900008BF20F0010010BC704710B5141E73F1A4
:1006A000000408DA401C41F1000192185B411A4332
:1006B00001D120F0010010BD2DE9F04D92469B467E
:1006C00011B1B1FA81F202E0B0FA80F22032904624
:1006D000FFF77BFF04460F4640EA0A0041EA0B01A0
:1006E00053465A46084313D0114653EA010019D025
:1006F000C8F140025046FFF777FF05460E465046C8
:1007000059464246FFF761FF084305D0012004E047
:1007100020463946BDE8F08D0020054346EAE076E4
:100720002C4337430A986305E40AA0EB0800002233
:10073000FD0A44EA47540A3002D500200146E9E7A1
:10074000010510196941DDE9084500196941BDE855
:10075000F04DA2E7064C074D06E0E06840F00103CB
:1007600094E8070098471034AC42F6D3FFF722FD17
:10077000C0760008E076000870B58C1810F8015BB0
:1007800015F0070301D110F8013B2A1106D110F82A
:10079000012B03E010F8016B01F8016B5B1EF9D12E
:1007A0002B0705D40023521E0DD401F8013BFAE7B4
:1007B00010F8013BCB1A921C03E013F8015B01F81F
:1007C000015B521EF9D5A142D8D3002070BD00BFF5
:1007D000FEE7000010B5024800F0DCFB10BD000091
:1007E0002011002010B5024800F0D4FB10BD00001D
:1007F0002011002010B5024800F0CCFB10BD000015
:100800006011002010B5024800F0C4FB10BD0000CC
:100810006011002070B504460D46206800F5D870C0
:1008200000EB0510006800F00400616B8860606BED
:10083000806860B9206800F5D87000EB051000688A
:1008400040F2FF7101EA5050616B08600BE02068D4
:1008500000F5D87000EB051000686FF0604101EA08
:10086000D000616B4860206800F5D87000EB05107F
:10087000006800F00200616BC860206800F5D87065
:1008800000EB0510406800F00F00616B0861606BC1
:100890000562206800F5D87000EB05104068C0F3D1
:1008A0000720616BC861206800F5D87000EB051067
:1008B0008068616B0875206800F5D87000EB051042
:1008C0008068010A606B4175206800F5D87000EB04
:1008D00005108068010C606B8175206800F5D87088
:1008E00000EB05108068000E616BC875206800F58C
:1008F000D87000EB0510C068C1B2606B017620684B
:1009000000F5D87000EB0510C068010A606B4176F5
:10091000206800F5D87000EB0510C068010C606B12
:100920008176206800F5D87000EB0510C068000ED5
:10093000616BC8764DB920202168C8602068406985
:1009400020F002002168486108E020202168086149
:100950002068406920F010002168486194F8380050
:1009600022281DD12068406920F4807021684861E8
:100970002068406920F4007021684861206840695F
:1009800020F48060216848612068406920F400609C
:10099000216848612068406920F40040216848616E
:1009A00094F83800322803D1122084F8380002E08D
:1009B000012084F83800204600F0A4FD002070BD1E
:1009C00010B504462068406920F0010021684861A4
:1009D00094F8380012281DD12068406920F48070F6
:1009E000216848612068406920F4007021684861EE
:1009F0002068406920F4806021684861206840696F
:100A000020F40060216848612068406920F40040BB
:100A10002168486194F83800322803D1222084F8F4
:100A2000380002E0012084F83800204600F06CFF16
:100A3000002010BD10B500241DE0204901EB840109
:100A400091ED001AF0EE410A04EB440101EBC40100
:100A50001B4A32F9211001EE101AB8EEC11AB0EE9D
:100A6000410A04EBC40101EB4101164A02EB81008B
:100A700006F0DEFC641C042CDFDB1148B0F9B0008A
:100A800000EE900AF8EEE00AB0EE600A0E48D0EDF3
:100A9000000A0E4806F0CCFC0948B0F9DC0000EE74
:100AA000900AF8EEE00AB0EE600A0748D0ED000ABE
:100AB00006486C3006F0BCFC10BD0000C0010020F0
:100AC000100F002018040020A4000020C8050020FA
:100AD00010B5024800F05EFF10BD0000A01200201B
:100AE0000146087810381823B0FBF3F20848805C00
:100AF000C865032A05D908686FF30900001D8865D9
:100B000003E008686FF309008865886D704700008E
:100B1000A4760008014600208A6A8B6903BB32B1C3
:100B2000012A0CD0022A10D0032A17D115E0CB6A73
:100B300003F08073B3F1807F00D101200FE0CB6A16
:100B4000B3F1C07F00D1012009E0CB6A03F08073CC
:100B5000B3F1807F00D1012001E000E000BF35E06B
:100B60008B69B3F5005F1BD132B1012A06D0022A8E
:100B70000CD0032A12D10BE0012010E0CB6A03F065
:100B80008073B3F1807F00D1012008E0012006E0EE
:100B9000CB6AB3F1C07F00D1012000E000BF15E0B7
:100BA00032B1012A05D0022A04D0032A0CD103E075
:100BB00000BF00BF012008E0CB6A03F08073B3F1EF
:100BC000807F00D1012000E000BF00BF704730B53A
:100BD0000468246824F4802405682C600468636039
:100BE0008468402C04D10468A2600468E16003E0DA
:100BF0000468A1600468E26030BD704710B502204F
:100C000001F0BEF810BD00BFFEE7000010B52DEDED
:100C1000068B0021514800F01DFC03F09DFB50495C
:100C2000B1F90800FFF778FC41EC1A0B9FED4D0B72
:100C300053EC102BFFF789FB41EC190B9FED4B0B8D
:100C400053EC102BFFF7F9FB41EC180BFFF782FC7C
:100C500048490860484890ED000AF0EE000AB4EEFA
:100C6000E00AF1EE10FA1EDD4448006C40F6C411B3
:100C700088420ADD4048D0ED000A3E4890ED000A67
:100C8000B8EEC00A3E4806F0D3FB3C48006C3D4934
:100C900008609FED3D0A3D4880ED0F0A9FED3A0A3E
:100CA00080ED0D0A56E0344890ED000AF8EE000A97
:100CB000B4EEE00AF1EE10FA1DD23048006CB0F547
:100CC000486F0ADA2C48D0ED000A2A4890ED000A55
:100CD000B8EEC00A2A4806F0ABFB2848006C294948
:100CE00008609FED290A294880ED0F0A9FED260A2A
:100CF00080ED0D0A2EE02148006CB0F5486F04DD50
:100D00004FF448601F49086008E01C48006C40F63A
:100D1000C411884202DA08461A4908601748D0ED23
:100D2000100AF8EEE00AB0EE600A1648D0ED000AAC
:100D3000F8EEE00A154806F07BFB144890ED0F0A28
:100D4000F0EE400A0B4890ED000AB8EEC00A0C48DD
:100D500006F06EFBBDEC068B10BD000020110020DC
:100D6000DC0E00200000000000002D406666666674
:100D7000666630403000002014000020181000206B
:100D80000C0700204800002000000000A006002002
:100D900010B52DED048B0021274800F05BFB03F01C
:100DA000DBFA2649B1F90C00FFF7B6FB41EC190B51
:100DB0009FED230B53EC102BFFF73FFB41EC180B7F
:100DC000FFF7C8FB204908602048407A012804D179
:100DD00043F22A201E4908600FE01C48407A03288D
:100DE00004D141F22A201A49086006E01748407AE7
:100DF000022802D11748164908601748D0ED050AA5
:100E0000F8EEE00AB0EE600A1148D0ED000AF8EE04
:100E1000E00A124806F00CFB104890ED0F0AF0EEC5
:100E2000400A094890ED000AB8EEC00A0C4806F0E6
:100E3000FFFABDEC048B10BD20110020DC0E002059
:100E400066666666666630402C000020C80E00208C
:100E50004C0000202AF2FFFF181000207807002025
:100E6000E407002030B5034600220C7D012000FA83
:100E700004F24648006840F00100444C20602046DF
:100E8000006820F47C502060204600684C6A40EAEC
:100E900004203E4C20603D481C30006890433B4C91
:100EA0001C342060C869D8B938480C3000689043B9
:100EB000364C0C342060888880B28C8940EA044427
:100EC000324840304D6940F83540088880B20C897E
:100ED00040EA04442D4840304D6900EBC5004460B1
:100EE000C86901281BD129480C3000681043274CE1
:100EF0000C342060888880B20C8840EA044423487F
:100F000040304D6940F83540888980B20C8940EA0C
:100F100004441E4840304D6900EBC50044608869B8
:100F200038B91A48001D00689043184C241D2060F1
:100F300006E01648001D00681043144C241D206074
:100F4000086930B911481430006890430F4C1434CC
:100F500020600869012806D10C481430006810434D
:100F60000A4C14342060086A012806D107481C3056
:100F700000681043054C1C3420600448006820F0D1
:100F80000100024C2060002030BD000000660040DF
:100F9000704700002DE9F041044600250026002797
:100FA0002068406900F0010018B320688068694932
:100FB0000840884201D1012000E000200546206859
:100FC000806865490840884201D1012000E0002086
:100FD00006462068806861490840884201D10120A6
:100FE00000E0002007460DB906B917B12046FFF70B
:100FF000E7FC2068C06800F0030520684069C0F382
:10100000400625B11EB100212046FFF703FC2068F1
:10101000006900F0030520684069C0F3001625B19F
:101020001EB101212046FFF7F5FB2068806900F022
:10103000010520684069C0F3002620684069C0F3BC
:10104000C0372DB126B11FB1E06B40F00100E06365
:1010500020688069C0F3400520684069C0F34026DD
:1010600020684069C0F3C0372DB126B11FB1E06BD5
:1010700040F00200E06320688069C0F380052068CA
:101080004069C0F3802620684069C0F3C0372DB1A5
:1010900026B11FB1E06B40F00400E0632068806976
:1010A00000F0700008B9012000E00020054620682B
:1010B0004069C0F3C02620684069C0F3C03795BBC3
:1010C0008EB387B32068806900F07005402D1BD077
:1010D00006DC102D09D0202D0CD0302D24D10EE0AF
:1010E000502D16D0602D1FD118E0E06B40F00800A5
:1010F000E0631AE0E06B40F01000E06315E0E06BA5
:1011000040F02000E06310E0E06B40F04000E0635E
:101110000BE0E06B40F08000E06306E0E06B40F441
:101120008070E06301E007E000BF00BF20688069D5
:1011300020F0700021688861E06B40B104202168D4
:101140004860012084F838002046FFF721FFBDE801
:10115000F0810000030000040003000800000310F9
:1011600070B50446032600250CB9012070BD94F823
:10117000380028B9002084F83900204600F0D0F863
:10118000022084F838002068006820F002002168FE
:1011900008602068006840F001002168086000F0E5
:1011A00019FF05460EE000F015FF401B0A2809D97B
:1011B000032084F8380000BF002084F8390000BF05
:1011C0000320D3E72068406800F001000028EAD03F
:1011D0002068406800F0010008B9002692E0A0698C
:1011E000012806D12068006840F08000216808606E
:1011F00005E02068006820F0800021680860E06950
:10120000012806D12068006840F04000216808608D
:1012100005E02068006820F0400021680860206A2E
:10122000012806D12068006840F02000216808608D
:1012300005E02068006820F0200021680860606AEE
:10124000012806D12068006840F01000216808607D
:1012500005E02068006820F0100021680860A06A9E
:10126000012806D12068006840F008002168086065
:1012700005E02068006820F0080021680860E06A46
:10128000012806D12068006840F004002168086049
:1012900005E02068006820F0040021680860D4E9B7
:1012A0000201084321690843616908436168491ED6
:1012B00008432168C8612068006820F001002168A7
:1012C000086000F087FE05460EE000F083FE401B3C
:1012D0000A2809D9032084F8380000BF002084F8C8
:1012E000390000BF032041E72068406800F001009A
:1012F0000028EAD12068406800F0010008B100260B
:1013000000E00126012E06D10020E063012084F8D0
:10131000380000202AE7042084F83800012025E75F
:1013200010B586B0044645492068884237D1444804
:101330000068401C424908600846006801280FD137
:1013400000BF002000903F48006840F000703D4919
:1013500008600846006800F00070009000BF00BF01
:1013600003200190022002900020039003200490AB
:101370000920059001A9344800F010FD0122114612
:10138000132000F0ECFE132000F0DCFE01221146D9
:10139000142000F0E4FE142000F0D4FE4BE02B49B2
:1013A0002068884247D100BF00200090254800688F
:1013B00040F08060234908600846006800F08060C3
:1013C000009000BF00BF1E480068401C1C49086018
:1013D0000846006801280FD100BF0020009019487E
:1013E000006840F00070174908600846006800F087
:1013F0000070009000BF00BF4FF4405001900220E9
:10140000029000200390032004900920059001A978
:101410000F4800F0C3FC012211463F2000F09FFE60
:101420003F2000F08FFE01221146402000F097FE81
:10143000402000F087FE06B010BD000000640040B0
:101440007C01002040380240000C0240006800404F
:101450000004024010B50246002392F83830012BF8
:1014600001D0122B49D100BF92F83900012801D1D7
:10147000022010BD012082F8390000BF92F8380028
:10148000122803D1322082F8380002E0222082F8AC
:1014900038000020D0631068406940F48070146800
:1014A00060611068406940F4007014686061106801
:1014B000406940F48060146860611068406940F4DD
:1014C0000060146860611068406940F4004014686E
:1014D000606100BF002082F8390000BF31B9106898
:1014E000406940F002001468606108E010684069DB
:1014F00040F010001468606101E00220B9E70020AC
:10150000B7E7000010B50446606B0068A0F2012048
:10151000082845D2DFE800F0454647480405889F83
:1015200000BF606B0078401F5B4908700846007878
:1015300000EB400101EBC000584901EB8000816ADB
:101540005548007800EB400202EBC000534A02EB22
:101550008000806A401C504A127802EB420303EB81
:10156000C2024E4B03EB8202906232290CD84A49E8
:10157000097801EB410202EBC1011A4602EB81003E
:10158000214605F001FF0BE04349097801EB4102D8
:1015900002EBC101414A02EB8100214605F0BAFE8F
:1015A00070E000BF00BF00BF606B0078401E3A498A
:1015B00008700846007800EB400101EBC000384994
:1015C00001EB8000816A3448007800EB400202EBB6
:1015D000C000334A02EB8000806A401C2E4A127819
:1015E00002EB420303EBC2022D4B03EB820290623B
:1015F00032290CD82849097801EB410202EBC101DC
:101600001A4602EB8100214605F0BEFE0BE022499E
:10161000097801EB410202EBC101214A02EB810092
:10162000214605F077FE2DE01D48D0F8D820D0F8EF
:10163000D800401C1A49C1F8D800322A05D82146E2
:101640001748B03005F0A0FE04E021461448B03041
:1016500005F060FE16E01248D0F80421D0F804012D
:10166000401C0F49C1F80401322A05D821460C4814
:10167000DC3005F089FE04E021460948DC3005F045
:1016800049FE00BF00BF07480068406940F0020003
:1016900004490968486110BD740100201810002039
:1016A000100F0020201100202DE9F04104460E46C5
:1016B000052500272068806800F08060B0F1806F09
:1016C0000DD02068806800F00060B0F1006F06D097
:1016D0002068806800F08050B0F1805F7ED100BF4C
:1016E00094F83900012802D10220BDE8F0810120E0
:1016F00084F8390000BF94F83800222803D1322042
:1017000084F8380002E0122084F8380020688068ED
:1017100000F08060B0F1806F01D1002509E0206801
:10172000806800F00060B0F1006F01D1012500E099
:101730000225206800F5C07000EB0510006800F07D
:101740000101206800F5C07000EB05100160206BFE
:10175000806898B9206800F5C07000EB051000683B
:10176000216BC968226B128841EA42510843216803
:1017700001F5C07101EB0511086015E0206800F566
:10178000C07000EB05100068216B8968226B5268FD
:1017900041EAC201226BD26811430843216801F576
:1017A000C07101EB05110860206B007C00F00F0098
:1017B000216B0861206800F5C07000EB05104068DF
:1017C00020F00F01206800F5C07000EB05104160AB
:1017D000206800F5C07000EB051000E088E040686C
:1017E000216B09690843216801F5C07101EB0511FE
:1017F0004860206BC07D0106206B807D41EA00417E
:10180000206B407D41EA0020216B097D084321685F
:1018100001F5C07101EB05118860206BC07E0106E7
:10182000206B807E41EA0041206B407E41EA00202F
:10183000216B097E0843216801F5C07101EB051198
:10184000C860206800F5C07000EB0510006840F02B
:101850000101206800F5C07000EB0510016000F088
:10186000B9FB074611E0701C78B126B100F0B2FB5D
:10187000C01BB04209D9032084F8380000BF002003
:1018800084F8390000BF03202FE74DB92068806835
:101890001A490840884201D1012016E0002014E0D6
:1018A000012D09D12068806815490840884201D17E
:1018B00001200AE0002008E0206880681149084003
:1018C000884201D1012000E000200028CBD094F80C
:1018D0003800322803D1222084F8380002E00120A9
:1018E00084F8380000BF002084F8390000BFFCE60F
:1018F000042084F838000120F7E60000030000040B
:1019000000030008000003107047014691F83500FD
:10191000022803D08020486501207047052081F807
:1019200035000868006820F001000A681060002097
:10193000F3E770B504460CB9012070BD94F835008A
:10194000022800D1F9E72068006820F00100216832
:10195000086000202168086021684860216888606C
:101960002168C860216808612120216848612046FB
:10197000FFF7B6F8054694F85C103F208840A86051
:101980000020606584F8350000BF84F8340000BF93
:1019900000BFD2E7F8B50446002000908D480068EB
:1019A0004FF41651B0FBF1F7A56D2E6894F85C105A
:1019B00008208840304098B12068006800F004009A
:1019C00070B12068006820F004002168086094F875
:1019D0005C1008208840A860606D40F001006065E0
:1019E00094F85C107C488840304068B120684069B9
:1019F00000F0800040B194F85C1077488840A860FF
:101A0000606D40F00200606594F85C107248C01C84
:101A10008840304070B12068006800F0020048B192
:101A200094F85C106C48C01C8840A860606D40F061
:101A30000400606594F85C1010208840304078B352
:101A40002068006800F0080050B394F85C10102083
:101A50008840A8602068006800F4802080B1206879
:101A6000006800F4002028B9206CC8B12046216C21
:101A7000884715E0A06C98B12046A16C88470FE01C
:101A80002068006800F4807028B92068006820F0A1
:101A9000080021680860206C10B12046216C88473E
:101AA00094F85C10202088403040002865D02068E1
:101AB000006800F0100000285FD094F85C1020202F
:101AC0008840A86094F83500052828D1206800686F
:101AD00020F01600216808602068406920F080002E
:101AE00021684861206C08B9A06C28B120680068A2
:101AF00020F008002168086094F85C103F208840BE
:101B0000A86000BF002084F8340000BF012084F8E2
:101B10003500206D10B12046216D8847F8BD206842
:101B2000006800F4802080B12068006800F4002084
:101B300028B9606C10B12046616C88471DE0E06BED
:101B4000D8B12046E16B884717E02068006800F4B0
:101B5000807068B92068006820F010002168086073
:101B600000BF002084F8340000BF012084F8350055
:101B7000E06B10B12046E16B8847606D38B3606D53
:101B800000F00100F0B1052084F8350020680068FD
:101B900020F001002168086000BF0098401C009000
:101BA000B84200D905E02068006800F00100002874
:101BB000F3D100BF00BF002084F8340000BF012033
:101BC00084F83500E06C10B12046E16C884700BF16
:101BD000A4E7000008000020010080002DE9F0418A
:101BE0000446002500F0F6F9074614B90120BDE8C7
:101BF000F081606A00B100BF00BF002084F83400AB
:101C000000BF022084F835002068006820F0010041
:101C1000216808600AE000F0DDF9C01B052805D93D
:101C200020206065032084F83500E0E72068006824
:101C300000F001000028EED120680568204805402A
:101C4000D4E901010843E168084321690843616957
:101C50000843A1690843E1690843216A0843054331
:101C6000606A042803D1D4E90B01084305432068C6
:101C700005602068456925F00705606A0543606ACC
:101C800004280BD1A06A05432046FEF743FF28B184
:101C900040206065012084F83500A8E72068456190
:101CA0002046FEF71DFF064694F85C103F20884052
:101CB000B06000206065012084F83500002096E7C0
:101CC0003F8010F02DE9F04704460D4616461F46AA
:101CD0004FF00008D4F8589000BF94F83400012861
:101CE00002D10220BDE8F087012084F8340000BF53
:101CF00094F8350001282BD1022084F8350000200B
:101D000060653B46324629462046FEF760FF94F860
:101D10005C103F208840C9F808002068006840F047
:101D20001600216808602068406940F08000216842
:101D30004861206C28B12068006840F008002168E4
:101D400008602068006840F001002168086006E033
:101D500000BF002084F8340000BF4FF00208404666
:101D6000C0E731B5002400F035F9044600BF00F0AB
:101D700031F9001B00998842F9D338BD7047000043
:101D800010B5044604480068204020B102480460B1
:101D90002046FFF7F3FF10BD143C0140F8B50246A2
:101DA0000B460025002400200021E6E0012606FA6B
:101DB00001F51E6806EA0504AC4273D15E68022E86
:101DC00002D05E68122E13D1CF0802F1200656F819
:101DD00027004E07F70E0F26BE40B0434F07FF0EF9
:101DE0001E69BE403043CF0802F1200646F82700A6
:101DF00010684F000326BE40B0431E7906F003066C
:101E00004F00BE40304310605E68012E08D05E680F
:101E1000022E05D05E68112E02D05E68122E13D1FC
:101E200090684F000326BE40B0434F00DE68BE40BE
:101E300030439060506801268E40B0431E79C6F34F
:101E400000168E4030435060D0684F000326BE40DD
:101E5000B0434F009E68BE403043D0605E6806F0DD
:101E60008056B6F1805FA8D100BF00260096454E8F
:101E7000366846F48046434F3E603E46366806F478
:101E80008046009600BF00BF3F4E8F0856F82700DF
:101E90008E07370F0F26BE40B0433C4EB24202D1F0
:101EA00000262EE068E03A4EB24201D1012628E039
:101EB000384EB24201D1022623E0374EB24201D160
:101EC00003261EE0354EB24201D1042619E0344EFD
:101ED000B24201D1052614E0324EB24201D10626AB
:101EE0000FE0314EB24201D107260AE02F4EB24236
:101EF00001D1082605E02E4EB24201D1092600E0AC
:101F00000A268F073F0FBE4030431F4E8F0846F80A
:101F10002700284E3068A0435E6806F48036B6F588
:101F2000803F00D12043234E3060361D3068A043EF
:101F30005E6806F40036B6F5003F00D120431D4E22
:101F4000361D3060361D3068A0435E6806F480168A
:101F5000B6F5801F00D12043164E08363060361D7E
:101F60003068A0435E6806F40016B6F5001F00D185
:101F70002043104E0C363060491C1029FFF416AF78
:101F8000F8BD00004438024008380140000002401B
:101F90000004024000080240000C02400010024011
:101FA0000014024000180240001C024000200240C1
:101FB00000240240003C0140024613690B400BB173
:101FC000012000E0002070470AB1816101E00B04AC
:101FD00083617047014800687047000000000020DE
:101FE00002480068401C014908607047000000205A
:101FF00010B50D48006840F400700B4908600846B1
:10200000006840F4806008600846006840F4807012
:102010000860032000F0E2F8002000F007F800F06C
:1020200019F8002010BD0000003C024070B50446C5
:10203000074800684FF47A71B0FBF1F5284601F0CB
:10204000D9FA00222146501E00F089F8002070BD08
:102050000800002010B5052000F0C0F8002211464D
:102060006FF00B0000F07BF8002211466FF00A00C1
:1020700000F075F8002211466FF0090000F06FF8CB
:1020800000221146501F00F06AF800221146101F6E
:1020900000F065F800221146901E00F060F8002262
:1020A0001146501E00F05BF810BD70B504460D4699
:1020B00016460CB9012070BD94F8390028B90020EB
:1020C00084F83800204601F0DBFF242084F8390032
:1020D0002068C06820F400502168C860204603F0E2
:1020E00017FA2068006920F4904021680861206890
:1020F000406920F02A00216848612068006920F0CA
:102100000F00216808612068006928432168086180
:102110002068C06820F400602168C8602068C0683A
:1021200030432168C8602068C06840F400502168CE
:10213000C8600020E063202084F8390084F83A0069
:102140000020B8E700BF00F01F02012191404209C2
:10215000920002F1E022C2F8001100BF70472DE9A1
:10216000F05F80460D461646002702F0EDFB07465D
:1021700039462A46334601F00700C0F1070ABAF192
:10218000040F02D94FF0040A01E0C0F1070AD1465A
:1021900000F1040ABAF1070F02D24FF0000A01E081
:1021A000A0F1030AD4464FF0010A0AFA09FAAAF18B
:1021B000010A0AEA020A0AFA0CFA4FF0010B0BFABA
:1021C0000CFBABF1010B0BEA030B4AEA0B042146B3
:1021D000404602F0C1FBBDE8F09F000000BF00F0E8
:1021E0000702064B19684FF6FF031940044B0B43D7
:1021F00043EA0221014B196000BF70470CED00E07B
:102200000000FA0510B50446D4F8B40303F0ACFDA1
:1022100010BD70B504460D46C5EBC50304F1380189
:1022200001EB8301CA682946D4F8B40303F0ECFC3F
:1022300070BD70B504460D46C5EBC50304F5EE71DF
:1022400001EB8301CA682946D4F8B40303F049FDC1
:1022500070BD10B50446D4F8B40303F088FD10BD7A
:1022600070B504460D4605F08000802808D105F0C1
:102270007F00C0EBC00104F1380000EB810605E0EF
:10228000C5EBC50104F5EE7000EB81060020B070CF
:1022900005F07F003070C5F3C010707000BF94F877
:1022A0008003012801D1022070BD012084F8800341
:1022B00000BF3146206804F0A9F900BF002084F86F
:1022C000800300BF00BFEFE72DE9F04705460E464B
:1022D00090461F464FF0000906F08000802808D184
:1022E00006F07F00C0EBC00105F1380000EB81046F
:1022F00007E006F07F00C0EBC00105F5EE7000EBD3
:10230000810406F07F00207006F08000C009607034
:10231000C4F80880E770607808B12078E080022F68
:1023200001D10020207100BF95F88003012802D15F
:102330000220BDE8F087012085F8800300BF214618
:10234000286803F0E5FF00BF002085F8800300BF88
:102350004846EEE72DE9F04104460E4617469846FA
:1023600006F07F00C0EBC00104F5EE7000EB8105C4
:10237000EF60C5F814800020A861687006F07F0047
:1023800028702069012800D12F6100BF94F88003D4
:10239000012802D10220BDE8F081012084F88003E9
:1023A00000BF06F07F0028B9227C2946206804F08F
:1023B00033F804E0227C2946206804F0B1F900BF1C
:1023C000002084F8800300BF00BFE4E770B5044636
:1023D0000D4605F08000802808D105F07F00C0EB95
:1023E000C00104F1380000EB810605E0C5EBC50132
:1023F00004F5EE7000EB81060120B07005F07F005F
:102400003070C5F3C010707000BF94F880030128CD
:1024100001D1022070BD012084F8800300BF314645
:10242000206804F037F905F07F0028B9217C04F515
:102430006172206804F0C8F800BF002084F88003AF
:1024400000BF00BFE6E72DE9F04104460E461746FF
:10245000984606F07F00C0EBC00104F1380000EBA5
:102460008105EF60C5F814800020A8610120687024
:1024700006F07F0028702069012800D12F6100BF7D
:1024800094F88003012802D10220BDE8F0810120E8
:1024900084F8800300BF06F07F0028B9227C29461B
:1024A000206803F0B9FF04E0227C2946206804F08C
:1024B00037F900BF002084F8800300BF00BFE4E7C5
:1024C0002DE9FC5F044626684FF0000B00200190C8
:1024D0008146002500908046F74F206804F0C2FA3C
:1024E00000286CD1206804F0F5FA08B9BDE8FC9F1B
:1024F000206804F0EFFA00F00200022805D12068FD
:10250000406900F0020021684861206804F0E2FAA6
:1025100000F40020B0F5002F7ED10025206804F0E3
:10252000AFFA019075E0019800F0010000286CD02E
:10253000E9B2206804F0C3FA814609F00100E8B36B
:10254000012106F5306000EB45108160206901280B
:102550002BD1C5EBC50104F5EE7000EB810081685D
:1025600006F5306000EB45100069C0F31200091A4F
:10257000C5EBC50204F5EE7000EB82008161C5EB8E
:10258000C50104F5EE7000EB8100C5EBC502C16822
:1025900004F5EE7000EB820080680144C5EBC502D3
:1025A00004F5EE7000EB8200C160E9B22046FFF74F
:1025B00040FE2069012811D105B901E00EE0B2E228
:1025C000C5EBC50104F5EE7000EB8100406928B948
:1025D00004F561720121206803F0F6FF09F008009C
:1025E000082808D1204600F007FB082106F53060D6
:1025F00000EB4510816009F01000102805D1102172
:1026000006F5306000EB451081606D1C01984008B4
:1026100001900198002800E000E084D1206804F0D7
:1026200059FA00F48020B0F5802F7DD1206804F0A5
:102630001EFA0190002585E0019800F001000028B5
:102640007CD0E9B2206804F024FA814609F0010048
:10265000F0B30120A840009040F634008059009962
:10266000884340F634018851012106F5106000EBE3
:10267000451081602069012815D1C5EBC50104F121
:10268000380000EB8100C5EBC502C16804F13800D9
:1026900000EB820080680144C5EBC50204F13800FC
:1026A00000EB8200C160E9B22046FFF7B2FD20696D
:1026B000012810D165B9C5EBC50104F1380000EB64
:1026C0008100406920B904F561720121206800E0B1
:1026D00001E003F079FF09F00800082805D108217E
:1026E00006F5106000EB4510816009F0100010281D
:1026F00005D1102106F5106000EB4510816009F04E
:102700004000402805D1402106F5106000EB45103F
:10271000816009F00200022805D1022106F510604F
:1027200000EB4510816001E010E007E009F0800057
:10273000802803D12946204602F02AF96D1C019811
:1027400040080190019800287FF476AF206804F0DB
:10275000C1F900F00040B0F1004F10D140F6040084
:10276000805920F0010140F604008151204600F01C
:102770001CFA2068406900F0004021684861206828
:1027800004F0A8F900F40060B0F5006F0ED140F637
:102790000800805900F0010010B1204600F036FA20
:1027A0002068406900F4006021684861206804F0F6
:1027B00091F900F48050B0F5805F5CD140F60400E0
:1027C000805920F0010140F6040081510021206869
:1027D00004F00EF94FF0000B0CE0FF2106F510603D
:1027E00000EB4B10816006F5306000EB4B10816010
:1027F0000BF1010B60685845EFD84FF0FF3140F600
:1028000018008151001D805940F0011140F61C0054
:102810008151206B70B1D6F8840840F00B01C6F8E6
:10282000841840F64400805940F00B0140F6440003
:1028300081510EE040F61400805940F00B0140F643
:1028400014008151001F805940F00B014FF40160CA
:102850008151D6F8000820F4FE60C6F80008217CFB
:1028600004F56172206803F0AFFE2068406900F44F
:10287000805021684861206804F02CF900F4005071
:10288000B0F5005F6FD1206803F0A4FD2068C06838
:1028900020F470502168C860206804F0C1F868B95D
:1028A0000021E1604FF4007161612068C06840F46C
:1028B00010502168C86084E00095BA0A0321E160E5
:1028C0004021616100F0A4FA07469848874209D385
:1028D0009748874206D22068C06840F4705021684B
:1028E000C8606EE09248874209D39248874206D278
:1028F0002068C06840F460502168C86061E08D487D
:10290000874209D38C48874206D22068C06840F4C9
:1029100050502168C86054E08748874209D38748EF
:10292000874206D22068C06840F440502168C860E1
:1029300047E08248874209D38148874206D220680F
:10294000C06840F430502168C8603AE07C48874253
:102950000AD37C48874207D22068C06840F42050E0
:102960002168C8602DE035E07648874209D3764873
:10297000874206D22068C06840F410502168C860C1
:102980001FE07148874209D37048874206D2206809
:10299000C06840F400502168C86012E06B4887426C
:1029A00009D36B48874206D22068C06840F4E050E3
:1029B0002168C86005E02068C06840F4C050216804
:1029C000C860204600F0D8F82068406900F4005044
:1029D00021684861206804F07DF800F0100010289C
:1029E00045D12068806920F0100021688861D6F800
:1029F000208008F00F00C0EBC00104F5EE7000EB82
:102A0000810AC8F3434002281AD147F6F07008EA59
:102A1000000030B3C8F30A123046DAF80C1004F0A4
:102A20005FF8C8F30A11DAF80C000844CAF80C0081
:102A3000C8F30A11DAF818000844CAF8180010E0C0
:102A4000C8F3434006280CD1082204F561713046D2
:102A500004F046F8C8F30A11DAF818000844CAF876
:102A600018002068806940F01000216888612068A3
:102A700004F030F800F00800082808D1204600F0E3
:102A80009BF82068406900F00800216848612068D0
:102A900004F020F800F48010B0F5801F09D1E9B2ED
:102AA000204600F057F82068406900F48010216843
:102AB0004861206804F00EF800F40010B0F5001F23
:102AC00009D1E9B2204600F04EF82068406900F4D0
:102AD000001021684861206803F0FCFF00F080408E
:102AE000B0F1804F08D12046FFF78CFB2068406989
:102AF00000F0804021684861206803F0EBFF00F09F
:102B0000040004280FD12068D0F8048008F00400E5
:102B1000042802D12046FFF79CFB2068406840EA69
:102B200008002168486000BFE0E40000C0ACD800A5
:102B3000C0E1E4000024F40080730601A0491A01FA
:102B4000002D310140A44C0100366E0120ABA601DE
:102B50000048E80170B504460D462946D4F8B40390
:102B600003F02EF970BD70B504460D462946D4F821
:102B7000B40303F028F970BD70B504460125E06880
:102B800010B1022804D101E0002503E0012501E095
:102B9000012500BF00BF2946D4F8B40303F070F943
:102BA000D4F8B40303F032F970BD10B50446D4F87C
:102BB000B40303F04DF910BD10B50446D4F8B403C6
:102BC00003F04DF910BD70B504460D4600BF94F8F2
:102BD0008003012801D1022070BD012084F8800308
:102BE00000BF2946206803F08CFF00BF002084F856
:102BF000800300BF00BFEFE710B5044604F5617124
:102C0000D4F8B40303F04AF910BD000010B504462F
:102C1000D4F8B40303F083F92068D0F8000E40F034
:102C200001002168C1F8000E206A28B1034800683D
:102C300040F006000149086010BD000010ED00E002
:102C400070B504460D4600266D48006800F00F0080
:102C5000A84209D26A490D700846006800F00F00CA
:102C6000A84201D0012070BD207800F002000228A7
:102C700007D16448006820F0F000A168084361496A
:102C80000860207800F00100002877D060680128F3
:102C900007D15C4808380068C0F34040B8B901204B
:102CA000E1E76068022802D06068032807D1554830
:102CB00008380068C0F3406048B90120D3E75148A4
:102CC00008380068C0F3400008B90120CBE74D4840
:102CD000006820F00300616808434A490860FFF774
:102CE00079F906466068012810D108E0FFF772F90B
:102CF000801B41F28831884201D90320B3E7414863
:102D0000006800F00C000428F0D137E06068022869
:102D100010D108E0FFF75EF9801B41F2883188424C
:102D200001D903209FE73748006800F00C0008280D
:102D3000F0D123E06068032810D108E0FFF74AF9DA
:102D4000801B41F28831884201D903208BE72D484E
:102D5000006800F00C000C28F0D10FE008E0FFF74D
:102D600039F9801B41F28831884201D903207AE782
:102D70002448006800F00C000028F0D120480068CA
:102D800000F00F00A84209D91D490D7008460068DF
:102D900000F00F00A84201D0012064E7207800F085
:102DA0000400042807D11748006820F4E050E168C7
:102DB000084314490860207800F00800082808D16A
:102DC0001048006820F46040216940EAC1000D49C4
:102DD000086000F04FF80B49096801F0F001F0229B
:102DE00092FAA2F2B2FA82F2D140074A515CC8408C
:102DF000064908600020FFF719F9002033E70000BA
:102E0000003C024008380240947600080800002088
:102E100001480068704700000800002000B5FFF777
:102E2000F7FF0749096801F4E0514FF4E05292FAC4
:102E3000A2F2B2FA82F2D140024A515CC84000BD0F
:102E4000083802409476000800B5FFF7E1FF074913
:102E5000096801F460414FF4604292FAA2F2B2FABA
:102E600082F2D140024A515CC84000BD083802409D
:102E70009476000870B50021002200230020274C22
:102E8000246804F00C0424B1042C04D0082C41D193
:102E900003E0234840E023483EE0204C241F246800
:102EA00004F03F011D4C241F246804F4800484B105
:102EB0001C4CB4FBF1F5194C241F246847F6C0766E
:102EC000344096FAA6F6B6FA86F6F44005FB04F20C
:102ED0000FE0134CB4FBF1F5104C241F246847F6A7
:102EE000C076344096FAA6F6B6FA86F6F44005FBAC
:102EF00004F20A4C241F246804F440344FF4403593
:102F000095FAA5F5B5FA85F5EC40641C6300B2FBB3
:102F1000F3F001E0024800BF00BF70BD0838024076
:102F20000024F400001BB70038B5044600252078C3
:102F300000F00100002848D0DE48006800F00C00D6
:102F400004280DD0DB48006800F00C00082811D1DF
:102F5000D848001F006800F48000B0F5800F09D148
:102F6000D44808380068C0F3404070B3606860BB64
:102F7000012038BD2079CF49891F0870606890B161
:102F8000FFF728F8054606E0FFF724F8401B642801
:102F900001D90320EDE7C74808380068C0F3404076
:102FA0000028F1D011E0FFF715F8054606E0FFF71D
:102FB00011F8401B642801D90320DAE7BD4808381E
:102FC0000068C0F340400028F1D1207800F00200F2
:102FD000022869D1B748006800F00C0058B1B54824
:102FE000006800F00C00082821D1B248001F0068DA
:102FF00000F48000D8B9AF4808380068C0F340003A
:1030000020B1E068012801D00120B2E7A9480838C2
:10301000006820F0F800F82292FAA2F2B2FA82F2E6
:10302000216991400843A349083908603CE0E06801
:1030300028B30120A0490860FEF7CCFF054606E052
:10304000FEF7C8FF401B022801D9032091E79948E9
:1030500008380068C0F340000028F1D095480838CF
:10306000006820F0F800F82292FAA2F2B2FA82F296
:103070002169914008438F490839086014E0002015
:103080008D490860FEF7A6FF054606E0FEF7A2FFA1
:10309000401B022801D903206BE7864808380068E6
:1030A000C0F340000028F1D1207800F00800082883
:1030B0002CD16069A8B1012080490860FEF78AFF21
:1030C000054606E0FEF786FF401B022801D90320D3
:1030D0004FE778486C300068C0F340000028F1D01A
:1030E00014E0002075490860FEF774FF054606E00D
:1030F000FEF770FF401B022801D9032039E76D4815
:103100006C300068C0F340000028F1D1207800F056
:103110000400042857D100BF0020009065483830D3
:10312000006840F080506349383108600846006804
:1031300000F08050009000BF00BF6148006840F47C
:1031400080705F490860FEF745FF054606E0FEF720
:1031500041FF401B022801D903200AE758480068B4
:1031600000F480700028F2D0207A5249683108704B
:10317000A068A0B1FEF72EFF054608E0FEF72AFF83
:10318000401B41F28831884201D90320F1E64948C9
:1031900068300068C0F340000028EFD013E0FEF76D
:1031A00019FF054608E0FEF715FF401B41F2883184
:1031B000884201D90320DCE63E4868300068C0F34D
:1031C00040000028EFD1A069F0B33A48006800F051
:1031D0000C00082869D0A069022850D10020364987
:1031E0000866FEF7F7FE054606E0FEF7F3FE401B15
:1031F000022801D90320BCE62E4808380068C0F335
:1032000040600028F1D1D4E90701084347F6C072B5
:1032100092FAA2F2B2FA82F2616A91400843012264
:10322000A16AC2EB51014FF4403292FAA2F2B2FA13
:1032300082F2914008434FF0706292FAA2F2B2FA21
:1032400082F2E16A914000E031E008431949091F28
:103250000860012018490866FEF7BCFE054606E036
:10326000FEF7B8FE401B022801D9032081E6114871
:1032700008380068C0F340600028F1D017E0002053
:103280000D490866FEF7A6FE054606E0FEF7A2FE1B
:10329000401B022801D903206BE606480838006865
:1032A000C0F340600028F1D101E0012061E6002078
:1032B0005FE600000838024000004742800E4742A7
:1032C0000070004010B504460CB9012010BD606AC2
:1032D00000B900BF0021A16294F8510028B9002074
:1032E00084F85000204600F033F8022084F85100A2
:1032F0002068006820F0400021680860D4E90101DE
:103300000843E16808432169084361690843218B48
:1033100001F400710843E1690843216A0843A16A86
:103320000843216808600421A06901EA1040616A2D
:103330000843216848602068C06920F40060216863
:10334000C86100206065012084F851000020BDE7BD
:1033500010B586B004461249206888421ED100BFCD
:10336000002000900F48006840F480100D4908606C
:103370000846006800F48010009000BF00BF4FF4C2
:1033800060700190022002900020039003200490BE
:103390000520059001A90448FEF700FD06B010BD08
:1033A0000050014044380240001402402DE9FE4F15
:1033B00004460D4616461F46DDF830804FF0000AE1
:1033C0000020029081464FF0010B019000BF94F85D
:1033D0005000012802D10220BDE8FE8F012084F8B0
:1033E000500000BFFEF7F6FD814694F851A06068DA
:1033F0000290BAF1010F0BD00298B0F5827F04D190
:10340000A06810B9BAF1040F02D002200190D2E0F6
:103410000DB106B117B901200190CCE094F851002C
:10342000012802D1052084F8510000206065A663C0
:10343000E787A7872563E786A786206460642068FE
:10344000006800F04000402805D02068006840F087
:10345000400021680860E068B0F5006F43D1606803
:1034600010B1E08E012806D128882168C860AD1C03
:10347000E08E401EE0862FE0BBF1000F10D0E08E02
:1034800070B12068806800F00200022808D1288806
:103490002168C860AD1CE08E401EE0864FF0000B36
:1034A000E08F68B12068806800F0010040B12068BA
:1034B000C0683080B61CE08F401EE0874FF0010BE3
:1034C00008F1010040B1FEF785FDA0EB0900404581
:1034D00002D3032001906EE0E08E0028CCD1E08F73
:1034E0000028C9D142E0606810B1E08E012806D101
:1034F0002878216808736D1CE08E401EE0862FE05E
:10350000BBF1000F10D0E08E70B12068806800F031
:103510000200022808D115F8010B21680873E08E1B
:10352000401EE0864FF0000BE08F68B12068806895
:1035300000F0010040B12068C06806F8010BE08F80
:10354000401EE0874FF0010B08F1010040B1FEF78B
:1035500041FDA0EB0900404502D3032001902AE081
:10356000E08E0028CCD1E08F0028C9D1434601224B
:1035700002212046CDF8009001F04AFB10B1032053
:10358000019018E04A464146204601F02DFB20B14B
:1035900001200190202060650DE0A06850B900BFB7
:1035A000002000902068C06800902068806800902B
:1035B00000BF00BF00BF012084F8510000BF002001
:1035C00084F8500000BF019806E7042808D14FF0A6
:1035D000E021096941F004014FF0E022116107E0A8
:1035E0004FF0E021096921F004014FF0E022116160
:1035F0007047704770B504462546681EB0F1807F5D
:1036000001D301200FE0681E4FF0E02148610F2137
:103610004FF0FF3001F0A0F900204FF0E021886169
:1036200007200861002070BD10B5FFF7E2FF10BD54
:1036300070477047024600BF92F83800012801D158
:1036400002207047012082F8380000BF022082F873
:1036500039001068406820F07000136858601068E6
:1036600040680B681843136858601068806820F041
:10367000800013689860106880684B68184313686E
:103680009860012082F8390000BF002082F83800DD
:1036900000BF00BFD5E710B504460CB9012010BD2E
:1036A00094F8390028B9002084F83800204600F04A
:1036B0000DF8022084F83900211D206801F078FC03
:1036C000012084F839000020E9E7000038B50446FD
:1036D0002068B0F1804F0FD100BF0020009051480A
:1036E000006840F001004F4908600846006800F09B
:1036F0000100009000BF94E04B492068884218D137
:1037000000BF002000904748006840F00200454993
:1037100008600846006800F00200009000BF00BF8B
:10372000002203211D20FEF71AFD1D20FEF70AFDD1
:1037300077E03E49206888420FD100BF002000900A
:103740003848006840F004003649086008460068C0
:1037500000F00400009000BF63E035492068884213
:1037600018D100BF002000902E48006840F00800EB
:103770002C4908600846006800F00800009000BF6F
:1037800000BF032204213220FEF7E9FC3220FEF7BD
:10379000D9FC46E027492068884218D100BF0020A4
:1037A00000902048006840F010001E49086008465C
:1037B000006800F01000009000BF00BF012200214F
:1037C0003620FEF7CCFC3620FEF7BCFC29E01A4977
:1037D0002068884211D100BF002000901148001DD0
:1037E000006840F002000F49091D086008460068A3
:1037F00000F00200009000BF13E0104920688842EA
:103800000FD100BF002000900648006840F0400043
:10381000044908600846006800F04000009000BFBE
:1038200000BF38BD4038024000040040000800409E
:10383000000C00400010004000040140001800404F
:1038400001460868C06840F001000A68D060086856
:10385000006840F001000A681060002070472DE900
:10386000F04104460D46002600BF94F838000128B8
:1038700002D10220BDE8F081012084F8380000BFA9
:10388000022084F839002068866826F0770626F43E
:103890007F4620688660286850283BD00CDC2028B2
:1038A00060D004DC002853D0102865D155E03028C2
:1038B0005DD0402860D141E0602835D070280DD01F
:1038C000B0F5805F03D0B0F5005F55D115E02068FA
:1038D000806820F00700216888604EE0D5E9021377
:1038E0006A68206801F0E4FB2068866826F07706A5
:1038F00046F07706206886603FE0D5E902136A68E3
:10390000206801F0D5FB2068806840F48040216881
:10391000886032E0EA686968206801F0BFFC5021E5
:10392000206801F0D1FB28E0EA686968206801F0AE
:10393000CAFC6021206801F0C7FB1EE0EA686968E4
:10394000206801F0ABFC4021206801F0BDFB14E0D1
:103950000021206801F0B8FB0FE01021206801F081
:10396000B3FB0AE02021206801F0AEFB05E0302126
:10397000206801F0A9FB00E000BF00BF012084F82F
:10398000390000BF002084F8380000BF00BF71E795
:10399000704710B5044620680069C0F34000D8B1F4
:1039A0002068C068C0F34000B0B16FF00200216829
:1039B0000861012020762068806900F0030018B1BA
:1039C0002046FFF7E5FF05E0204600F041F92046DC
:1039D00000F018FA0020207620680069C0F380000B
:1039E000D8B12068C068C0F38000B0B16FF00400A7
:1039F00021680861022020762068806900F4407008
:103A000018B12046FFF7C4FF05E0204600F020F97A
:103A1000204600F0F7F90020207620680069C0F306
:103A2000C000D8B12068C068C0F3C000B0B16FF06A
:103A3000080021680861042020762068C06900F031
:103A4000030018B12046FFF7A3FF05E0204600F071
:103A5000FFF8204600F0D6F90020207620680069A3
:103A6000C0F30010D8B12068C068C0F30010B0B136
:103A70006FF0100021680861082020762068C06976
:103A800000F4407018B12046FFF782FF05E02046A1
:103A900000F0DEF8204600F0B5F90020207620681E
:103AA000006900F0010058B12068C06800F0010012
:103AB00030B16FF0010021680861204600F0CAF9BA
:103AC00020680069C0F3C01058B12068C068C0F316
:103AD000C01030B16FF08000216808612046FFF708
:103AE000A7FD20680069C0F3801058B12068C06845
:103AF000C0F3801030B16FF04000216808612046AB
:103B000000F016FA20680069C0F3401058B1206830
:103B1000C068C0F3401030B16FF020002168086128
:103B20002046FFF786FD10BD10B586B0044620681C
:103B3000B0F1804F0DD10F200190022002900020A3
:103B4000039004900120059001A93748FEF726F95B
:103B500068E03649206888420DD11020019002208B
:103B600002900020039004900220059001A93048A3
:103B7000FEF714F956E02F49206888420ED14FF421
:103B800070400190022002900020039004900220D7
:103B9000059001A92848FEF701F943E0274920686C
:103BA00088421BD101200190022002900020039046
:103BB00004900220059001A92148FEF7EFF84FF488
:103BC000E050019002200290002003900490022017
:103BD000059001A91B48FEF7E1F823E01A49206887
:103BE00088420DD1E4200190022002900020039031
:103BF00004900320059001A91148FEF7CFF811E0C9
:103C00001249206888420DD14FF4107001900220B3
:103C100002900020039004900920059001A9094812
:103C2000FEF7BCF806B010BD0000024000040040E2
:103C30000004024000080040000C0240000C00405C
:103C400000200240001C0240000401400018004017
:103C5000704770B504460D46164600BF94F838000C
:103C6000012801D1022070BD012084F8380000BF76
:103C7000022084F8390036B1042E1BD0082E31D032
:103C80000C2E5ED145E02946206801F027FA206815
:103C9000806940F00800216888612068806920F010
:103CA00004002168886120688069296908432168C7
:103CB000886147E02946206801F048FA2068806959
:103CC00040F40060216888612068806920F4806089
:103CD0002168886120688069296940EA012021689B
:103CE00088612FE02946206801F06CFA2068C069DD
:103CF00040F008002168C8612068C06920F0040015
:103D00002168C8612068C069296908432168C861C1
:103D100018E02946206801F091FA2068C06940F453
:103D200000602168C8612068C06920F48060216853
:103D3000C8612068C069296940EA01202168C8611A
:103D400000E000BF00BF012084F8390000BF002060
:103D500084F8380000BF00BF85E710B504460CB9F1
:103D6000012010BD94F8390028B9002084F83800EB
:103D7000204600F00DF8022084F83900211D20684B
:103D800001F016F9012084F839000020E9E700006D
:103D900010B586B0044600BF0020009017480068A8
:103DA00040F04000154908600846006800F04000F7
:103DB000009000BF00BF00BF002000900F481038E7
:103DC000006840F080000D4910390860084600681E
:103DD00000F08000009000BF00BF4FF41070019011
:103DE000022002900020039004900920059001A970
:103DF0000348FDF7D3FF06B010BD00004038024075
:103E0000001C02407047000030B504460D460122F8
:103E10002946206801F03EF90C492068884203D009
:103E20000B492068884201D1012000E0002028B120
:103E30002068406C40F400402168486420680068B5
:103E400040F0010021680860002030BD0000014002
:103E50000004014038B504463048844220D130483F
:103E6000007810B9FCF794FF0EE02D480078012887
:103E700002D1FCF7CBFE07E029480078022802D1E6
:103E8000FCF7D8FD00E000BF25480078401C24491D
:103E900008700846007804283FD1002008703CE0F4
:103EA0002048844239D1204890ED600ABDEEC00A16
:103EB00010EE100A00B200901B4890ED450ABDEECE
:103EC000C00A10EE100A03B2174890ED2A0ABDEEA0
:103ED000C00A10EE100A02B2134890ED0F0ABDEEB0
:103EE000C00A10EE100A01B2104800F0E7FE0E48BA
:103EF00090ED960ABDEEC00A10EE100A00B20090D6
:103F0000094890ED7B0ABDEEC00A10EE100A03B21C
:103F100000221146054800F002FF38BDB41400200D
:103F2000500000202C150020180400202011002033
:103F3000704770472DE9F0470446206805682068FF
:103F4000C668206847694FF00008C14605F00F08B1
:103F5000B8F1000F0AD105F0200038B106F02000BA
:103F600020B1204601F086FABDE8F087B8F1000FD5
:103F70006DD007F0010018B906F49070002866D0E3
:103F800005F0010030B106F4807018B1E06B40F02C
:103F90000100E06305F0040030B107F0010018B142
:103FA000E06B40F00200E06305F0020030B107F082
:103FB000010018B1E06B40F00400E06305F0080078
:103FC00030B107F0010018B1E06B40F00800E06389
:103FD000E06B68B305F0200028B106F0200010B1B6
:103FE000204601F047FA20684069C0F38019E06B71
:103FF00000F0080010B9B9F1000F22D0204601F0FE
:104000000FFA2068406900F04000B0B120684069B4
:1040100020F0400021684861606B50B11748616B27
:104020000865606BFDF771FC10B1606B016D88472E
:104030000CE02046FFF77DFF08E02046FFF779FF00
:1040400004E02046FFF775FF0020E0638CE705F0F1
:10405000800030B106F0800018B1204601F00CFC61
:1040600082E705F0400030B106F0400018B120466C
:1040700001F0E6F978E700BF76E700006953000831
:1040800010B586B004465549206888421ED100BF4D
:10409000002000905248006840F01000504908602D
:1040A0000846006800F01000009000BF00BFC0206C
:1040B000019002200290002003900320049007202A
:1040C000059001A94748FDF769FE85E0464920684B
:1040D000884228D100BF002000904148001F00689E
:1040E00040F400303E49091F08600846006800F4AB
:1040F0000030009000BF00BF6020019002200290BD
:1041000000200390032004900720059001A9374860
:10411000FDF744FE002201212620FEF720F826208C
:10412000FEF710F858E032492068884229D100BFD4
:10413000002000902A48001F006840F48020284991
:10414000091F08600846006800F48020009000BF46
:1041500000BF4FF4407001900220029000200390B5
:10416000032004900720059001A92048FDF716FEC2
:10417000002201212720FDF7F2FF2720FDF7E2FFB3
:104180002AE01C492068884226D100BF0020009008
:104190001348006840F02000114908600846006894
:1041A00000F02000009000BF00BF4FF48440019059
:1041B0000220029000200390032004900820059024
:1041C00001A90D48FDF7EAFD002201214720FDF776
:1041D000C6FF4720FDF7B6FF06B010BD0010014036
:1041E000443802400004024000440040000C0240F9
:1041F000004800400014014000180240F7B5044692
:10420000154694F83A00202843D1019800B10DB921
:104210000120FEBD00BF94F83800012801D1022022
:10422000F7E7012084F8380000BF0198A062A58557
:104230000020E063222084F83A001748616BC863CD
:104240001648616B08641648616BC8640020616B96
:10425000086501AE32682368191D2B46606BFDF7B7
:1042600031FD2068C06840F480702168C860206813
:10427000406940F00100216848612068406940F0D1
:1042800040002168486100BF002084F8380000BF6A
:10429000BFE70220BDE70000CD530008135400081B
:1042A0007D53000810B5034693F83A00202829D121
:1042B00001B10AB9012010BD00BF93F838000128F0
:1042C00001D10220F7E7012083F8380000BF99628E
:1042D0009A85DA850020D863222083F83A0000BF4F
:1042E000002083F8380000BF1868406940F00100E2
:1042F0001C6860611868C06840F490701C68E060D9
:104300000020D8E70220D6E710B504460B488442C7
:1043100009D10B490B4800F0B7FB122209490748A5
:10432000FFF76CFF09E00848844206D100F0E2FF85
:10433000012206490448FFF7B5FF10BD9016002082
:10434000C80E002020020020D01600209600002079
:104350007047704700BFFEE71FB50E2269463B203D
:1043600000F0A2F89DF801009DF8001040EA01203D
:1043700000B2214908809DF803009DF8021040EA30
:10438000012000B21C4948809DF805009DF80410EA
:1043900040EA012000B2184988809DF807009DF886
:1043A000061040EA012000B21349C8809DF80900B8
:1043B00012490989401A9DF8081040EA012000B20C
:1043C0000D4908819DF80B000C494989401A9DF858
:1043D0000A1040EA012000B2074948819DF80D000B
:1043E00006498989401A9DF80C1040EA012000B264
:1043F000014988811FBD0000DC0E0020F60E002060
:1044000010B586B000241422104901A8FBF7EAFE7B
:104410006420FDF7A6FC752000F01CF80C4908701C
:1044200000BF0DE001AA02EB4402517801AA12F884
:10443000140000F06BF80120FDF793FC601CC4B27F
:104440000A2CEFDB002006B010BD0000AC7600089F
:104450005C01002038B50446002240210E48FDF7DB
:10446000B3FD44F080000D490870372001230C4A49
:1044700000900C48FEF79AFF37200123084A0749AD
:1044800000900848FEF792FF012240210248FDF704
:104490009BFD0348007838BD0014024060010020F5
:1044A0005F01002020140020F8B506460C46154692
:1044B000002240211048FDF787FD46F080000F499B
:1044C0000870084600780E490870372001230D4A0D
:1044D0000A4900900C48FEF769FF37202B46224618
:1044E000074900900848FEF761FF01224021024879
:1044F000FDF76AFD0020F8BD0014024062010020B3
:1045000063010020610100202014002038B5054619
:104510000C46002240210F48FDF756FD05F07F00B4
:104520000D490870372001230C4A00900C48FEF713
:104530003DFF0948047037200123084A06490090CE
:104540000748FEF733FF012240210248FDF73CFDFA
:10455000002038BD001402405E0100205D010020F3
:104560002014002010B50E480E4908600320486052
:1045700000210C488160C1604FF4002101614FF4BB
:104580004011416100218161C1610162416281622A
:104590000121C162FCF7E4FD08B1FCF734FB10BD5A
:1045A000006400402011002000B587B000BF00204B
:1045B00001904248006840F01000404908600846F9
:1045C000006800F01000019000BF00BF00BF002095
:1045D00001900846006840F0400008600846006806
:1045E00000F04000019000BF00BF00BF002001901C
:1045F0000846006840F0020008600846006800F0C5
:104600000200019000BF00BF00BF002001900846DB
:10461000006840F0010008600846006800F00100F2
:10462000019000BF00BF00BF002001900846006855
:1046300040F0080008600846006800F0080001909B
:1046400000BF00BF00BF002001900846006840F492
:10465000807008600846006800F48070019000BF18
:1046600000BF00BF002001900846006840F08000B5
:1046700008600846006800F08000019000BF00BF9D
:1046800000BF002001900846006840F0200008604C
:104690000846006800F02000019000BF00BF081528
:1046A000029000200390012004900020059002A9B0
:1046B0000348FDF773FB07B000BD0000303802402F
:1046C0000014024010B50E480E4908604FF4827085
:1046D000486000210B488160C160016141614FF475
:1046E000007181613021C1610021016241628162FA
:1046F0000A21C162FEF7E6FD08B1FCF784FA10BD9D
:10470000005001402014002000B58DB04FF08040D3
:104710002B4908605920486000212948816044F6EF
:104720002061C16000210161FEF7B5FF08B1FCF70F
:104730006AFA4FF48050099009A92148FFF78FF8D1
:1047400008B1FCF760FA1E48FFF707FB08B1FCF759
:104750005AFA00200790089007A91948FEF76AFF47
:1047600008B1FCF750FA602000904FF47A70019085
:10477000002002900490002269461148FFF769FA70
:1047800008B1FCF740FA042269460D48FFF761FAC8
:1047900008B1FCF738FA082269460948FFF759FAC8
:1047A00008B1FCF730FA0C2269460548FFF751FAC8
:1047B00008B1FCF728FA0248FFF7B6F90DB000BDC2
:1047C0007814002010B50C480C4908600C4848606B
:1047D00000210A488160C1604FF4806101610421B9
:1047E000416100218161C16100221146FDF75DFC3C
:1047F00008B1FCF708FA10BD001001409016002027
:10480000A086010010B50C480C4908604FF4E13057
:104810004860002109488160C16001610C2141614B
:1048200000218161C16100221146FDF73EFC08B103
:10483000FCF7E9F910BD000000440040D01600204C
:1048400010B50C480C4908604FF4E1304860002175
:1048500009488160C16001610C21416100218161D1
:10486000C16100221146FDF720FC08B1FCF7CBF92D
:1048700010BD0000004800401017002038B5044665
:104880000D462B4884420FD900BF002000902948D4
:10489000006840F48000274908600846006800F47A
:1048A0008000009000BF0FE000BF00200090214872
:1048B000006840F400101F4908600846006800F4D2
:1048C0000010009000BF00BF00BF1B481B49486399
:1048D00008461949886300BF084604604560002106
:1048E0008160C1604FF4806101610021416181619B
:1048F0004FF48071C1614FF4403101620021416287
:104900008162C1620163FDF769F908B1FCF77BF9C7
:104910000948FDF70EF80848FDF760F90022114636
:104920003A20FDF71CFC3A20FDF70CFC38BD0000D6
:104930000064024030380240A0120020901600208F
:1049400000BFFEE77047000002480068C0F3022085
:10495000704700000CED00E010B5002807DA0A07E8
:10496000140E054A00F00F031B1FD45403E00A077E
:10497000130E024A135410BD18ED00E000E400E0ED
:1049800010B50248FDF79CFD10BD000090170020F7
:104990002DE9F84F07460E46D7F800800025AA46B5
:1049A000C6EBC60107F1380000EB8104D4E905012C
:1049B000451AA068A84200D2A568E81C4FEA9009F1
:1049C00017E0D4E90501451AA068A84200D2A568FD
:1049D000E81C4FEA9009387CABB2F2B20090404636
:1049E000E16802F0A0F8E0682844E060A06928448B
:1049F000A06108F5106000EB4610806980B2484560
:104A000006D9D4E90510884202D260690028D8D1BD
:104A100065B9012000FA06FA40F6340050F80800A3
:104A200020EA0A0040F6340141F808000020BDE801
:104A3000F88F00002DE9F0412DED048B04460D4662
:104A400016461F46B0EE408AF0EE608AB0EE419AFC
:104A50000A4860660A48A066B0EE491AF0EE680A95
:104A6000B0EE480A3B46324629462046D4F864C098
:104A7000E047BDEC048BBDE8F081000045760008FE
:104A8000597600087047000070B52DED0A8B04467A
:104A90000D4614B9BDEC0A8B70BD2078617840EAF0
:104AA0000120C0F30A00464908806078C010A17850
:104AB00040EA4110C0F30A0041494880A0788011C3
:104AC000E17840EA8100217940EA8120C0F30A00C0
:104AD0003B49888020794010617940EAC110C0F3D9
:104AE0000A003749C880607900118008087260792F
:104AF000C0F301104872A079E17940EA012000B2C8
:104B00002F494881207A617A40EA012001B22C487D
:104B10008181A07AE17A40EA012001B22848C1816E
:104B2000207B41B226480174607B41B22448417425
:104B3000A07BE17B40EA012021494882084602F03F
:104B400093FD6888FBF7F9FC41EC1C0B9FED1D0BF6
:104B500053EC102BFBF7F9FB41EC1B0B81F00041F0
:104B600041EC1A0B9FED190B53EC102BFBF765FC76
:104B700041EC190B9FED170B53EC102BFBF7EBFBE4
:104B800041EC180BFBF705FD144908601448006858
:104B900058B1084690ED000AB5EEC00AF1EE10FAE1
:104BA00003D29FED100A80ED000A054802F018FBC1
:104BB000284602F0E5F9284602F098F900BF69E7B7
:104BC000C80E00200000000000009040000000001F
:104BD00000A08440000000000070A740A400002056
:104BE0005001002000000000F8B504460D461646AE
:104BF0002B46002280212046009600F009F828B1BB
:104C0000606D40F0200060650320F8BD0020FCE7E7
:104C10002DE9F04104460E4617461D46DDF8188082
:104C20003FE0681CE0B32DB1FDF7D4F9A0EB08001C
:104C3000A84236D32068406820F0E0002168486030
:104C40006068B0F5827F0DD1A068B0F5004F03D049
:104C5000A068B0F5806F05D12068006820F04000A2
:104C600021680860A06AB0F5005F0ED100BF20681F
:104C700000684DF6FF7108402168086020680068F0
:104C800040F400502168086000BF012084F8510002
:104C900000BF002084F8500000BF0320BDE8F08171
:104CA000FFE7206880683040B04201D1012000E079
:104CB0000020B842B5D10020F0E770472DE9F0415F
:104CC00004460D4616461F46DDF818804FF4007066
:104CD000216B08600020216B8860216BC860082070
:104CE000216B0861280A216B0875206B4575310A14
:104CF000206B8175206BC675390A206B0176206B9D
:104D000047764FEA1821206B8176206B80F81B8054
:104D10004FF47A712046FCF7C7FCBDE8F0812DE91D
:104D2000F04104460D4616461F46DDF8188040F255
:104D3000FF10216B08600020216B8860216BC86028
:104D40000820216B0861280A216B0875206B4575C6
:104D5000310A206B8175206BC675390A206B01768C
:104D6000206B47764FEA1821206B8176206B80F804
:104D70001B804FF47A712046FCF796FCBDE8F08169
:104D800010B5FDF72DF9FEF74FFC10BD10B592B030
:104D900000BF002000902C48006840F080502A4955
:104DA00008600846006800F08050009000BF00BF17
:104DB00000BF002000902548006840F4404023498F
:104DC00008600846006800F44040009000BF00BF43
:104DD00001200690079002200C9041050D910C21B6
:104DE0000E914FF4A8710F9102211091072111919A
:104DF00006A8FEF799F808B1FBF705FF0F20019010
:104E000002200290002003904FF4A05004904FF431
:104E100080500590052101A8FDF712FF08B1FBF7AE
:104E2000F2FEFDF7F5FF4FF47A71B0FBF1F4204686
:104E3000FEF7E0FB0420FEF7C8FB00221146501EDF
:104E4000FDF78DF912B010BD4038024000700040EF
:104E50001448006840F47000124908601248006865
:104E600040F001001049086000200F490831086037
:104E70000D4800680D4908400B4908600C48091DA1
:104E80000860081F006820F48020091F08600020C7
:104E900005490C3108604FF0006002498039086014
:104EA0007047000088ED00E000380240FFFFF6FE8A
:104EB0001030002470B504460D461B481B4908609D
:104EC0000846456000218160C4600161FEF745FF2E
:104ED000602017490860204604EBD0714910144A3D
:104EE000516002201146886000221048FEF7B1FE92
:104EF00000210E48FEF788FF60200E49086020461A
:104F000004EBD07149100B4A5160022011468860B1
:104F100004220648FEF79DFE04210448FEF774FFB4
:104F20000248FEF735FF70BD001800401C16002037
:104F3000581600207416002010B50248FEF729FD0F
:104F400010BD0000B414002070B505460C4607489B
:104F5000074908600846446000218160C56001611E
:104F6000FEF799FB0248FEF76BFC70BD00040040A1
:104F7000B414002010B50248FEF70BFD10BD000070
:104F80002C15002070B505460C46074807490860F7
:104F90000846446000218160C5600161FEF77BFB2B
:104FA0000248FEF74DFC70BD000C00402C1500209F
:104FB000002202682C4B98420ED0B0F1804F0BD0EB
:104FC0002A4B984208D02A4B984205D0294B984248
:104FD00002D0294B984201D1012300E000231BB1EC
:104FE00022F070024B681A431F4B984220D0B0F158
:104FF000804F1DD01D4B98421AD01D4B984217D0A0
:105000001C4B984214D01C4B984211D01B4B984219
:105010000ED01B4B98420BD01A4B984208D01A4B1B
:10502000984205D0194B984202D0194B984201D1B1
:10503000012300E000231BB122F44072CB681A4325
:1050400002608B68C3620B688362074B984202D090
:10505000094B984201D1012300E000230BB10B69F9
:1050600003630123436170470000014000040040D6
:1050700000080040000C00400004014000400140D6
:10508000004401400048014000180040001C00405E
:105090000020004030B50023012404FA01F3046A23
:1050A0009C430462046A02FA01F52C43046230BD99
:1050B00030B50C460021816821F47F4142EA032586
:1050C00025432943816030BD0A460021816821F0D3
:1050D000700142F0070319438160704730B5002426
:1050E00000220023056A25F001050562026A436873
:1050F000846924F0700424F003040D682C4322F02A
:1051000002028D682A430F4DA84202D00E4DA842DC
:1051100001D1012500E000256DB122F00802CD6823
:105120002A4322F0040223F4807323F400734D69B0
:105130002B438D692B43436084614D684563026254
:1051400030BD0000000001400004014030B50024E3
:1051500000220023056A25F010050562026A4368F3
:10516000846924F4E04424F440740D6844EA05247E
:1051700022F020028D6842EA0512104DA84202D0AA
:105180000F4DA84201D1012500E0002585B122F094
:105190008002CD6842EA051222F0400223F48063C7
:1051A00023F400634D6943EA85038D6943EA85036F
:1051B000436084614D688563026230BD0000014038
:1051C0000004014030B5002400220023056A25F4C4
:1051D00080750562026A4368C46924F0700424F093
:1051E00003040D682C4322F400728D6842EA052204
:1051F000104DA84202D0104DA84201D1012500E077
:10520000002585B122F40062CD6842EA052222F42D
:10521000806223F4805323F400534D6943EA05135D
:105220008D6943EA05134360C4614D68C56302623A
:1052300030BD0000000001400004014030B50022F4
:1052400000230024056A25F480550562036A44683A
:10525000C26922F4E04222F440720D6842EA05225B
:1052600023F400538D6843EA05330A4DA84202D067
:10527000094DA84201D1012500E0002525B124F403
:1052800080444D6944EA85144460C2614D680564F8
:10529000036230BD000001400004014030B50B4600
:1052A000144600210022026A056A25F00105056204
:1052B000816921F0F00141EA041122F00A021A4347
:1052C0008161026230BD30B50B46144600210022D8
:1052D000056A25F0100505628169026A21F47041B2
:1052E00041EA043122F0A00242EA03128161026223
:1052F00030BD00001848008800F4004058BB174833
:105300000078FE280ED11449098841F40041124A60
:10531000118013480188134A118041885180818887
:10532000918018E00D4800780B490988C1F30D0100
:105330000B4A521E505408480088401C06490880F9
:1053400008460088C72803DC10460078FF2802D0F2
:105350000020014908807047980000209600002036
:10536000330200209A00002070B50546AC6B002087
:10537000E085E0842046FEF7DCFD70BD70B5064692
:105380000025B46B20684069C0F3C01594F839005B
:10539000212805D125B10020E084204600F060F8E6
:1053A00020684069C0F3801594F83A00222805D19E
:1053B00025B10020E085204600F032F8E06B40F097
:1053C0001000E0632046FEF7B4FD70BD70B50546E1
:1053D000AC6B2868006800F48070B0B90020E085EC
:1053E0002068C06820F480702168C8602068406927
:1053F00020F00100216848612068406920F04000E9
:1054000021684861202084F83A002046FEF77CFF9E
:1054100070BD70B50446A56B2846FEF799FF70BDB8
:105420000168C96821F490710268D1600168496916
:1054300021F0010102685161202180F83A10704783
:1054400010B504462068C06820F040002168C8609C
:10545000202084F839002046FEF77BFF002010BD95
:105460000168C96821F0C0010268D160202180F87C
:105470003910704770B5044694F83A00222844D198
:10548000A068B0F5805F13D1A56A206940B9206893
:105490004068C0F308002880A06A801CA06219E060
:1054A00020684068C0B22880A06A401CA06211E059
:1054B000206938B920684068C1B2A26A501CA06255
:1054C000117007E02068406800F07F01A26A501C5C
:1054D000A0621170E08D401E80B2E08598B920680E
:1054E000C06820F490702168C8602068406920F08E
:1054F000010021684861202084F83A002046FEF728
:1055000003FF002070BD0020FCE70220FAE7000046
:105510002DE9F041044600252068056925F4405531
:10552000E0680543206805612068C56849F20C60A1
:1055300085432169A068084361690843E16908431C
:1055400005432068C5602068456925F44075A06959
:10555000054320684561E069B0F5004F7ED1C4493C
:105560002068884203D0C349206888425DD1FDF796
:105570006BFC00EBC00101EB001061684900B0FB5F
:10558000F1F06421B0FBF1F00601FDF75DFC00EBEA
:10559000C00101EB001061684900B0FBF1F7FDF7B5
:1055A00053FC00EBC00101EB001061684900B0FB47
:1055B000F1F06421B0FBF1F000EBC00101EB001051
:1055C000A7EB8000322101EBC0006421B0FBF1F0B9
:1055D00000F0F80006EB4006FDF736FC00EBC001DA
:1055E00001EB001061684900B0FBF1F7FDF72CFCFE
:1055F00000EBC00101EB001061684900B0FBF1F065
:105600006421B0FBF1F000EBC00101EB0010A7EB4F
:105610008000322101EBC0006421B0FBF1F000F00A
:10562000070030442168886020E1FDF7F7FB00EBBC
:10563000C00101EB001061684900B0FBF1F064218A
:10564000B0FBF1F00601FDF7E9FB00EBC00101EB57
:10565000001061684900B0FBF1F700E045E0FDF79C
:10566000DDFB00EBC00101EB001061684900B0FBFD
:10567000F1F06421B0FBF1F000EBC00101EB001090
:10568000A7EB8000322101EBC0006421B0FBF1F0F8
:1056900000F0F80006EB4006FDF7C0FB00EBC00190
:1056A00001EB001061684900B0FBF1F7FDF7B6FBB4
:1056B00000EBC00101EB001061684900B0FBF1F0A4
:1056C0006421B0FBF1F000EBC00101EB0010A7EB8F
:1056D0008000322101EBC0006421B0FBF1F000F04A
:1056E0000700304421688860C0E061492068884232
:1056F00003D06049206888425CD1FDF7A5FB00EB30
:10570000C00101EB001061688900B0FBF1F6FDF704
:105710009BFB00EBC00101EB001061688900B0FB4E
:10572000F1F06421B0FBF1F000EBC00101EB0010DF
:10573000A6EB8000322101EB00106421B0FBF1F0F8
:1057400000F0F006FDF780FB00EBC00101EB00105C
:1057500061688900B0FBF1F06421B0FBF1F006EB69
:105760000016FDF771FB00EBC00101EB0010616852
:105770008900B0FBF1F7FDF767FB00EBC00101EB1F
:10578000001061688900B0FBF1F06421B0FBF1F01A
:1057900000EBC00101EB0010A7EB8000322101EB10
:1057A00000106421B0FBF1F000F00F0030442168DC
:1057B00088605BE0FDF732FB00EBC00101EB0010FD
:1057C00061688900B0FBF1F6FDF728FB00EBC00132
:1057D00001EB001061688900B0FBF1F06421B0FBBF
:1057E000F1F000EBC00101EB0010A6EB80003221CC
:1057F00001EB00106421B0FBF1F000F0F006FDF7C2
:105800000DFB00EBC00101EB001061688900B0FBEB
:10581000F1F06421B0FBF1F006EB0016FDF7FEFAA3
:1058200000EBC00101EB001061688900B0FBF1F7EB
:10583000FDF7F4FA00EBC00101EB0010616889008C
:10584000B0FBF1F06421B0FBF1F000EBC00101EB23
:105850000010A7EB8000322101EB00106421B0FBA7
:10586000F1F000F00F00304421688860BDE8F0815D
:105870000010014000140140014691F83900212830
:105880002CD18868B0F5805F0FD10A6A1088C0F308
:1058900008000B685860086918B9086A801C08621B
:1058A00009E0086A401C086205E00B6A581C08629F
:1058B00018780B685860C88C401E80B2C88458B9EC
:1058C0000868C06820F080000B68D8600868C0686D
:1058D00040F040000B68D860002070470220FCE7D1
:1058E00010B50248FEF726FB10BD00009016002000
:1058F00010B50248FEF71EFB10BD0000D0160020B8
:1059000010B50248FEF716FB10BD0000101700206E
:1059100010B50248FEF70EFB10BD00005017002026
:1059200070B504460D46D4F8140229464268204654
:105930009047002070BD70B504460D4694F8FC01F8
:10594000022802D0032811D100E000BF6888012896
:105950000BD10020C4F80402D4F81402294682684E
:1059600020469047204600F04AF804E029462046A9
:1059700000F01BF800BF00BF70BD70B506460C46B6
:1059800015462B4622460021304600F02FFA002013
:1059900070BD70B506460C4615462B4622460021C2
:1059A000304600F0C6FA002070BD70B504460D46C2
:1059B0008021204600F0A9FA0021204600F0A5FA37
:1059C00070BD10B504460520C4F8F40100231A4642
:1059D0001946204600F00AFA002010BD70B50446B2
:1059E0000E4615460220C4F8F401A561E5612B4678
:1059F00032460021204600F09CFA002070BD10B510
:105A000004460420C4F8F40100231A46194620462F
:105A100000F08FFA002010BD70B504460D46E888EE
:105A2000012804D029462046FFF7BFFF1BE094F869
:105A3000FC01022802D003280FD108E00020A0605A
:105A4000012204F108012046FFF7C8FF0AE0012205
:105A5000211D2046FFF7C2FF04E029462046FFF73C
:105A6000A4FF00BF00BF70BDF8B504460E467088A5
:105A7000001208287FD2DFE800F07E040C207E7E32
:105A80005F6D207CD4F810120A686946904705467D
:105A900076E0207C40B9D4F81402816A68468847D1
:105AA00005460221697007E0D4F81402C16A68460D
:105AB000884705460221697062E0B078062834D232
:105AC000DFE800F0030B131B232B207CD4F810120B
:105AD0004A686946904705462CE0207CD4F81012AD
