:020000040800F2
:10000000601F0020C101000891390008DF36000898
:100010008D390008AB070008FB5400080000000001
:10002000000000000000000000000000D33A0008BB
:10003000A10C000800000000D13A0008353B000880
:10004000DB010008DB010008DB010008DB01000820
:10005000DB010008DB010008DB010008A30C00083D
:10006000DB010008DB010008DB010008DB01000800
:10007000DB010008DB010008DB010008DB010008F0
:10008000DB010008DB010008DB010008C1070008F4
:10009000B1070008DB010008DB010008DB010008F4
:1000A000DB010008DB010008DB010008DB010008C0
:1000B000DB010008693C0008DB010008DB010008E7
:1000C000DB010008DB010008DB010008DB010008A0
:1000D000DB0100088542000895420008A54200089F
:1000E000DB010008DB010008DB010008DB01000880
:1000F000DB010008DB010008DB010008DB01000870
:10010000DB010008DB010008A53C0008DB0100085A
:10011000DB010008DB010008DB010008DB0100084F
:10012000DB010008DB010008910C0008DB0100087E
:10013000DB010008DB010008DB010008E107000823
:10014000D1070008DB010008DB010008CD390008F9
:10015000DB010008DB010008DB010008B5420008F4
:10016000DB010008DB010008DB010008DB010008FF
:10017000DB010008DB010008DB01000800000000D3
:10018000DB010008DB010008DB010008DB010008DF
:10019000DB010008DB010008DB010008DB010008CF
:1001A0000000000000000000DB010008DFF80CD0B8
:1001B00000F0BEFA00480047BD580008601F00204C
:1001C0000648804706480047FEE7FEE7FEE7FEE7F1
:1001D000FEE7FEE7FEE7FEE7FEE7FEE7053C000878
:1001E000AD0100082DE9FE4F804681EA0300C00FF3
:1001F0000C46009021F0004123F00045B8EB0200CE
:10020000A94105D24046214690461C460B4602466F
:1002100023F00040104347D0270DC7F30A00C3F373
:100220000A510290401A019040286BDAC3F3130080
:1002300040F4801B0098924620B10023D2EB030AC1
:1002400063EB0B0B01985946C0F14002504600F099
:10025000A9F906460D4650465946019A00F0C1F9E3
:1002600010EB08006141002487EA115284EAE77329
:100270001A4340D0009A62B3019A012A4FEA07520A
:1002800015DC001B61EB02014FF0004202EA07524D
:10029000CDE90042001C41F5801132462B4600F0AA
:1002A000F8F903B0BDE8F08F40462146F9E7001B9E
:1002B00061EB0201001C41F5801300185B4120181E
:1002C000A2F5001747EB030140EAD570B6196D415E
:1002D00011E06D084FEA360645EAC0754FEA07524D
:1002E000001B61EB0201001C41F5801149084FEA37
:1002F00030000019514132462B4603B0BDE8F04FA3
:1003000000F0B8B90098012240000023D0EB0202AF
:1003100063EBE073009821464FEAE074B8EB00000D
:1003200061EB0401E9E783F000435BE781F0004102
:1003300058E72DE9FE4F81EA030404F0004421F060
:10034000004100944FF0000B23F0004350EA0104F9
:100350005ED052EA03045BD0C3F30A54C1F30A55DA
:100360002C44A4F2F3340194A0FB0254C1F3130112
:1003700041F48011C3F3130343F4801301FB0244DF
:1003800000FB034E840A970A44EA815447EA8357E4
:10039000A4FB076802958D0A05FB07854FEA932C9D
:1003A00004FB0C542705029D4FEA065847EA16370E
:1003B000B5EB08056EEB070C870E920E47EA811726
:1003C00042EA8312A7FB0201B6EB0B0164EB0004C7
:1003D0002B0D43EA0C335E1844EB1C50DA465146B1
:1003E000E7FB0201C5F313044FEA0B3343EA14534E
:1003F0004FEA0432019C43EA0603A4F10C04029480
:10040000009CCDE900B400F044F903B0BDE8F08FE2
:1004100000200146F9E72DE9F04D81EA030404F0DC
:10042000004B21F0004514464FF0000A23F0004134
:1004300050EA050220D054EA01021DD0C5F30A5744
:100440000246C5F31303C1F31300C1F30A5640F487
:10045000801543F48013A7EB0608101BD64608F25C
:10046000FD3873EB050002D308F1010801E0921892
:100470005B41B8F1000F03DA00200146BDE8F08DC2
:1004800000204FF48011064684460EE0171B73EBE4
:10049000050705D3121B63EB050306434CEA010C69
:1004A00049084FEA300092185B4150EA0107EDD14C
:1004B00052EA030012D082EA040083EA05010843ED
:1004C00005D0101BAB4106D20122002306E000221A
:1004D0004FF0004302E06FF0010253101AEB0600E8
:1004E0004CEB085110EB0A0041EB0B01BDE8F04D5D
:1004F00000F0C0B80EB5C10F80EAE0700844CA072A
:10050000002140F233438DE80E000A460B4600F00E
:10051000C0F803B000BD00F0004230F000400AD047
:10052000C10D01F56071C0F3160042EA0151C20825
:1005300040071143704700200146704730B5041E44
:1005400071F1000404DB4FF00044404264EB010110
:10055000141E73F1000405DB1C464FF000435242A9
:1005600063EB0403994208BF904230BD01F00043A1
:1005700030B421F0004150EA010206D00A0DA2F584
:100580006072C1F31301002A02DC30BC0020704706
:10059000440F44EAC104C100E01830BC00EBC25073
:1005A00000F031B8202A04DB203A00FA02F10020E2
:1005B00070479140C2F1200320FA03F319439040A1
:1005C0007047202A04DB203A21FA02F0002170470C
:1005D00021FA02F3D040C2F12002914008431946AB
:1005E0007047202A06DBCB17203A41FA02F043EA93
:1005F000E07306E041FA02F3D040C2F120029140DC
:100600000843194670470029A8BF7047401C49009D
:1006100008BF20F00100704710B4B0FA80FC00FA67
:100620000CF050EA010404BF10BC704749B1CCF192
:10063000200421FA04F411FA0CF118BF012121431E
:100640000843A3EB0C01CB1D4FEA00614FEA1020D9
:1006500042BF002010BC704700EBC350104400297B
:10066000A4BF10BC7047401C490008BF20F0010027
:1006700010BC704710B5141E73F1000408DA401C5A
:1006800041F1000192185B411A4301D120F00100B1
:1006900010BD2DE9F04D92469B4611B1B1FA81F2A1
:1006A00002E0B0FA80F220329046FFF77BFF04466A
:1006B0000F4640EA0A0041EA0B0153465A460843F6
:1006C00013D0114653EA010019D0C8F14002504638
:1006D000FFF777FF05460E46504659464246FFF75C
:1006E00061FF084305D0012004E020463946BDE8FB
:1006F000F08D0020054346EAE0762C4337430A9804
:100700006305E40AA0EB08000022FD0A44EA47540E
:100710000A3002D500200146E9E7010510196941B8
:10072000DDE9084500196941BDE8F04DA2E7000088
:10073000064C074D06E0E06840F0010394E807002E
:1007400098471034AC42F6D3FFF734FD205C000824
:10075000405C000870B58C1810F8015B15F00703B9
:1007600001D110F8013B2A1106D110F8012B03E04A
:1007700010F8016B01F8016B5B1EF9D12B0705D452
:100780000023521E0DD401F8013BFAE710F8013B9B
:10079000CB1A921C03E013F8015B01F8015B521EB7
:1007A000F9D5A142D8D3002070BD00BFFEE70000FC
:1007B00010B5024800F014FB10BD0000901100209D
:1007C00010B5024800F00CFB10BD00009011002095
:1007D00010B5024800F004FB10BD0000D01100204D
:1007E00010B5024800F0FCFA10BD0000D011002046
:1007F00070B504460D46206800F5D87000EB051072
:10080000006800F00400616B8860606B806860B90C
:10081000206800F5D87000EB0510006840F2FF7109
:1008200001EA5050616B08600BE0206800F5D87059
:1008300000EB051000686FF0604101EAD000616BC9
:100840004860206800F5D87000EB0510006800F0E3
:100850000200616BC860206800F5D87000EB0510DD
:10086000406800F00F00616B0861606B05622068F2
:1008700000F5D87000EB05104068C0F30720616BED
:10088000C861206800F5D87000EB05108068616BC6
:100890000875206800F5D87000EB05108068010A23
:1008A000606B4175206800F5D87000EB051080681A
:1008B000010C606B8175206800F5D87000EB0510A5
:1008C0008068000E616BC875206800F5D87000EB79
:1008D0000510C068C1B2606B0176206800F5D87061
:1008E00000EB0510C068010A606B4176206800F5D6
:1008F000D87000EB0510C068010C606B8176206831
:1009000000F5D87000EB0510C068000E616BC8766A
:100910004DB920202168C8602068406920F002009D
:100920002168486108E0202021680861206840694A
:1009300020F010002168486194F8380022281DD169
:100940002068406920F4807021684861206840690F
:1009500020F40070216848612068406920F48060BC
:10096000216848612068406920F40060216848617E
:100970002068406920F400402168486194F83800FC
:10098000322803D1122084F8380002E0012084F8D4
:100990003800204600F0DCFC002070BD10B5044695
:1009A0002068406920F001002168486194F838000F
:1009B00012281DD12068406920F4807021684861A8
:1009C0002068406920F4007021684861206840690F
:1009D00020F48060216848612068406920F400604C
:1009E000216848612068406920F40040216848611E
:1009F00094F83800322803D1222084F8380002E02D
:100A0000012084F83800204600F090FE002010BD40
:100A10002DE9F0412DED0C8B07460E4615461C4680
:100A20008649886FFFF766FD41EC1B0B9FED840B39
:100A300053EC102BFFF77DFC41EC190B824800684A
:100A4000FFF769FD41EC1B0B80480068FFF763FD71
:100A500041EC1D0B9FED7E0B53EC102BFFF769FC57
:100A600041EC1C0B53EC1B2BFFF7BCFB41EC1A0BAE
:100A700053EC192BFFF757FC41EC180BFFF776FDF1
:100A800072490860084690ED000ADFED730AB4EE83
:100A9000E00AF1EE10FA0CD290ED000ADFED6F0AD9
:100AA000B4EEE00AF1EE10FA03DD00206C490860B4
:100AB00004E06B480068401C6949086068480068A9
:100AC0001E2873DD5D49886FFFF714FD41EC190B9B
:100AD00094ED000A10EE101A0846FFF71CFD41ECD9
:100AE0001D0B9FED600B53EC102BFFF722FC41EC2C
:100AF0001C0B9FED5E0B53EC102BFFF71AFC41EC27
:100B00001B0B9FED5C0B53EC102BFFF784FC41ECAF
:100B10001A0B53EC192BFFF706FC41EC180B9FED59
:100B2000570B53EC102BFFF709FD07D294ED000A89
:100B3000DFED540A30EE600A84ED000A9FED520AA0
:100B400086ED0F0A0020464908603C49886FFFF790
:100B5000D1FC41EC190B94ED000A10EE101A084676
:100B6000FFF7D9FC41EC1D0B9FED3E0B53EC102B16
:100B7000FFF7DFFB41EC1C0B9FED3C0B53EC102B04
:100B8000FFF7D7FB41EC1B0B9FED3A0B53EC102BFF
:100B9000FFF741FC41EC1A0B53EC192BFFF7C3FB99
:100BA00041EC180BFFF7E2FC3849086094ED000AAD
:100BB00010EE101A0846FFF7AEFC41EC1B0B9FED40
:100BC000290B53EC102BFFF7B4FB41EC1A0B9FEDF4
:100BD000270B53EC102BFFF7ACFB41EC190B9FEDEF
:100BE000250B53EC102BFFF716FC41EC180BFFF70D
:100BF000BDFC15490860298AA869401A00EE900AD0
:100C0000F8EEE00AB0EE600A0F48D0ED000A384670
:100C100004F0E2FE97ED0F1AF0EE410AB5F900007C
:100C200001EE100AB8EEC11AB0EE410A304604F0E7
:100C3000D3FEBDEC0C8BBDE8F0810000500F00200E
:100C40009A9999999999C93F6C00002064000020F5
:100C50009A9999999999E93F00407E4500407EC54F
:100C60006800002000000000000033400000000089
:100C70000000C0400000000000807640000000003E
:100C800000CBEC400000904200409CC5700000206A
:100C900010B5024800F060FD10BD000010130020E8
:100CA000704710B5022000F089FE10BD00BFFEE7BE
:100CB00030B5034600220C7D012000FA04F24648BC
:100CC000006840F00100444C20602046006820F499
:100CD0007C502060204600684C6A40EA04203E4C6C
:100CE00020603D481C30006890433B4C1C34206021
:100CF000C869D8B938480C3000689043364C0C3479
:100D00002060888880B28C8940EA044432484030B0
:100D10004D6940F83540088880B20C8940EA0444A7
:100D20002D4840304D6900EBC5004460C86901287A
:100D30001BD129480C3000681043274C0C3420602C
:100D4000888880B20C8840EA0444234840304D69CA
:100D500040F83540888980B20C8940EA04441E4836
:100D600040304D6900EBC5004460886938B91A48C5
:100D7000001D00689043184C241D206006E01648B2
:100D8000001D00681043144C241D2060086930B910
:100D900011481430006890430F4C143420600869E7
:100DA000012806D10C481430006810430A4C143452
:100DB0002060086A012806D107481C3000681043EB
:100DC000054C1C3420600448006820F00100024CEF
:100DD0002060002030BD0000006600407047000029
:100DE0002DE9F041044600250026002720684069CF
:100DF00000F0010018B32068806869490840884203
:100E000001D1012000E00020054620688068654986
:100E10000840884201D1012000E0002006462068F9
:100E2000806861490840884201D1012000E000202B
:100E300007460DB906B917B12046FFF7AFFD206888
:100E4000C06800F0030520684069C0F3400625B182
:100E50001EB100212046FFF7CBFC2068006900F09E
:100E6000030520684069C0F3001625B11EB10121B9
:100E70002046FFF7BDFC2068806900F0010520686E
:100E80004069C0F3002620684069C0F3C0372DB127
:100E900026B11FB1E06B40F00100E063206880697B
:100EA000C0F3400520684069C0F3402620684069CF
:100EB000C0F3C0372DB126B11FB1E06B40F0020086
:100EC000E06320688069C0F3800520684069C0F352
:100ED000802620684069C0F3C0372DB126B11FB10C
:100EE000E06B40F00400E0632068806900F070006F
:100EF00008B9012000E00020054620684069C0F3E1
:100F0000C02620684069C0F3C03795BB8EB387B355
:100F10002068806900F07005402D1BD006DC102D84
:100F200009D0202D0CD0302D24D10EE0502D16D01C
:100F3000602D1FD118E0E06B40F00800E0631AE07C
:100F4000E06B40F01000E06315E0E06B40F0200043
:100F5000E06310E0E06B40F04000E0630BE0E06B2A
:100F600040F08000E06306E0E06B40F48070E063F6
:100F700001E007E000BF00BF2068806920F070003A
:100F800021688861E06B40B104202168486001203D
:100F900084F838002046FFF721FFBDE8F08100000B
:100FA00003000004000300080000031070B50446AD
:100FB000032600250CB9012070BD94F8380028B92B
:100FC000002084F83900204600F0D0F8022084F890
:100FD00038002068006820F002002168086020685E
:100FE000006840F001002168086000F011FE05462D
:100FF0000EE000F00DFE401B0A2809D9032084F8FA
:10100000380000BF002084F8390000BF0320D3E778
:101010002068406800F001000028EAD0206840689D
:1010200000F0010008B9002692E0A069012806D16D
:101030002068006840F080002168086005E02068B2
:10104000006820F0800021680860E069012806D16E
:101050002068006840F040002168086005E02068D2
:10106000006820F0400021680860206A012806D14D
:101070002068006840F020002168086005E02068D2
:10108000006820F0200021680860606A012806D10D
:101090002068006840F010002168086005E02068C2
:1010A000006820F0100021680860A06A012806D1BD
:1010B0002068006840F008002168086005E02068AA
:1010C000006820F0080021680860E06A012806D165
:1010D0002068006840F004002168086005E020688E
:1010E000006820F0040021680860D4E90201084388
:1010F00021690843616908436168491E0843216802
:10110000C8612068006820F001002168086000F0D4
:101110007FFD05460EE000F07BFD401B0A2809D943
:10112000032084F8380000BF002084F8390000BF95
:10113000032041E72068406800F001000028EAD160
:101140002068406800F0010008B1002600E0012698
:10115000012E06D10020E063012084F83800002031
:101160002AE7042084F83800012025E710B586B06E
:10117000044645492068884237D144480068401CED
:10118000424908600846006801280FD100BF0020CE
:1011900000903F48006840F000703D4908600846F4
:1011A000006800F00070009000BF00BF03200190B5
:1011B0000220029000200390032004900920059053
:1011C00001A9344800F008FC01221146132000F068
:1011D000E4FD132000F0D4FD01221146142000F09C
:1011E000DCFD142000F0CCFD4BE02B492068884248
:1011F00047D100BF002000902548006840F0806083
:10120000234908600846006800F08060009000BF35
:1012100000BF1E480068401C1C4908600846006862
:1012200001280FD100BF002000901948006840F04D
:101230000070174908600846006800F000700090D0
:1012400000BF00BF4FF440500190022002900020E8
:101250000390032004900920059001A90F4800F095
:10126000BBFB012211463F2000F097FD3F2000F01C
:1012700087FD01221146402000F08FFD402000F044
:101280007FFD06B010BD000000640040600100203A
:1012900040380240000C0240006800400004024058
:1012A00010B50246002392F83830012B01D0122BE2
:1012B00049D100BF92F83900012801D1022010BDA8
:1012C000012082F8390000BF92F83800122803D1BB
:1012D000322082F8380002E0222082F83800002014
:1012E000D0631068406940F48070146860611068D1
:1012F000406940F40070146860611068406940F40F
:101300008060146860611068406940F4006014688F
:1013100060611068406940F400401468606100BF7B
:10132000002082F8390000BF31B91068406940F0F0
:1013300002001468606108E01068406940F0100025
:101340001468606101E00220B9E70020B7E70000FF
:1013500010B50446606B0068A0F2012008283BD25B
:10136000DFE800F03B3C3D3E04058B7400BF606B42
:101370000078401F514908700846007800EB400093
:101380004F4901EB0010C16A4C48007800EB400067
:101390004B4A02EB0010C06A401C484A127802EB2C
:1013A0004202474B03EB0212D06232290AD843496A
:1013B000097801EB41011A4602EB0110214604F0C5
:1013C00072FA09E03D49097801EB41013C4A02EB20
:1013D0000110214604F022FA66E000BF00BF00BF02
:1013E000606B0078401E354908700846007800EBB5
:1013F0004000344901EB0010C16A3048007800EB2E
:101400004000304A02EB0010C06A401C2B4A1278A0
:1014100002EB42022B4B03EB0212D06232290AD8B4
:101420002649097801EB41011A4602EB01102146D9
:1014300004F039FA09E02149097801EB4101214A18
:1014400002EB0110214604F0E9F92DE01D48D0F827
:10145000EC20D0F8EC00401C1A49C1F8EC00322A0C
:1014600005D821461748C03004F01DFA04E0214693
:101470001448C03004F0D2F916E01248D0F81C210C
:10148000D0F81C01401C0F49C1F81C01322A05D8B4
:1014900021460C48F03004F006FA04E021460948E1
:1014A000F03004F0BBF900BF00BF07480068406996
:1014B00040F0020004490968486110BD5401002051
:1014C00070100020500F0020901100202DE9F041F5
:1014D00004460E46052500272068806800F08060DD
:1014E000B0F1806F0DD02068806800F00060B0F12E
:1014F000006F06D02068806800F08050B0F1805FF7
:101500007ED100BF94F83900012802D10220BDE845
:10151000F081012084F8390000BF94F838002228B7
:1015200003D1322084F8380002E0122084F8380019
:101530002068806800F08060B0F1806F01D10025E4
:1015400009E02068806800F00060B0F1006F01D110
:10155000012500E00225206800F5C07000EB0510B1
:10156000006800F00101206800F5C07000EB051074
:101570000160206B806898B9206800F5C07000EBAE
:1015800005100068216BC968226B128841EA42513C
:101590000843216801F5C07101EB0511086015E0F1
:1015A000206800F5C07000EB05100068216B8968A9
:1015B000226B526841EAC201226BD2681143084390
:1015C000216801F5C07101EB05110860206B007CFA
:1015D00000F00F00216B0861206800F5C07000EB7F
:1015E0000510406820F00F01206800F5C07000EB86
:1015F00005104160206800F5C07000EB051000E0A8
:1016000088E04068216B09690843216801F5C071D1
:1016100001EB05114860206BC07D0106206B807DC9
:1016200041EA0041206B407D41EA0020216B097DA9
:101630000843216801F5C07101EB05118860206B3A
:10164000C07E0106206B807E41EA0041206B407E17
:1016500041EA0020216B097E0843216801F5C07131
:1016600001EB0511C860206800F5C07000EB0510A3
:10167000006840F00101206800F5C07000EB051023
:10168000016000F0C5FA074611E0701C78B126B180
:1016900000F0BEFAC01BB04209D9032084F838001C
:1016A00000BF002084F8390000BF03202FE74DB9A8
:1016B000206880681A490840884201D1012016E05C
:1016C000002014E0012D09D12068806815490840E8
:1016D000884201D101200AE0002008E020688068EB
:1016E00011490840884201D1012000E00020002873
:1016F000CBD094F83800322803D1222084F8380067
:1017000002E0012084F8380000BF002084F839008E
:1017100000BFFCE6042084F838000120F7E6000052
:101720000300000400030008000003107047014696
:1017300091F83500022803D08020486501207047C9
:10174000052081F835000868006820F001000A686B
:1017500010600020F3E70000F8B504460020009078
:101760008D4800684FF41651B0FBF1F7A56D2E6857
:1017700094F85C1008208840304098B120680068D8
:1017800000F0040070B12068006820F004002168B7
:10179000086094F85C1008208840A860606D40F0F4
:1017A0000100606594F85C107C488840304068B166
:1017B0002068406900F0800040B194F85C107748E0
:1017C0008840A860606D40F00200606594F85C108D
:1017D0007248C01C8840304070B12068006800F03A
:1017E000020048B194F85C106C48C01C8840A860A6
:1017F000606D40F00400606594F85C101020884033
:10180000304078B32068006800F0080050B394F8C6
:101810005C1010208840A8602068006800F48020D8
:1018200080B12068006800F4002028B9206CC8B19D
:101830002046216C884715E0A06C98B12046A16C29
:1018400088470FE02068006800F4807028B920689D
:10185000006820F0080021680860206C10B1204664
:10186000216C884794F85C10202088403040002884
:1018700065D02068006800F0100000285FD094F860
:101880005C1020208840A86094F83500052828D1F5
:101890002068006820F01600216808602068406910
:1018A00020F0800021684861206C08B9A06C28B144
:1018B0002068006820F008002168086094F85C1037
:1018C0003F208840A86000BF002084F8340000BF9B
:1018D000012084F83500206D10B12046216D884725
:1018E000F8BD2068006800F4802080B1206800689E
:1018F00000F4002028B9606C10B12046616C884764
:101900001DE0E06BD8B12046E16B884717E0206806
:10191000006800F4807068B92068006820F010004A
:101920002168086000BF002084F8340000BF012057
:1019300084F83500E06B10B12046E16B8847606D9C
:1019400038B3606D00F00100F0B1052084F8350077
:101950002068006820F001002168086000BF00983E
:10196000401C0090B84200D905E02068006800F0F3
:1019700001000028F3D100BF00BF002084F834002C
:1019800000BF012084F83500E06C10B12046E16C06
:10199000884700BFA4E70000080000200100800085
:1019A00031B5002400F034F9044600BF00F030F9EE
:1019B000001B00998842F9D338BD704710B5044622
:1019C00004480068204020B1024804602046FFF728
:1019D000F4FF10BD143C0140F8B502460B4600254B
:1019E000002400200021E6E0012606FA01F51E6829
:1019F00006EA0504AC4273D15E68022E02D05E682E
:101A0000122E13D1CF0802F1200656F827004E07F8
:101A1000F70E0F26BE40B0434F07FF0E1E69BE40B3
:101A20003043CF0802F1200646F8270010684F0027
:101A30000326BE40B0431E7906F003064F00BE40A9
:101A4000304310605E68012E08D05E68022E05D01B
:101A50005E68112E02D05E68122E13D190684F007E
:101A60000326BE40B0434F00DE68BE403043906066
:101A7000506801268E40B0431E79C6F300168E4092
:101A800030435060D0684F000326BE40B0434F0043
:101A90009E68BE403043D0605E6806F08056B6F166
:101AA000805FA8D100BF00260096454E366846F4F8
:101AB0008046434F3E603E46366806F480460096B8
:101AC00000BF00BF3F4E8F0856F827008E07370F24
:101AD0000F26BE40B0433C4EB24202D100262EE05B
:101AE00068E03A4EB24201D1012628E0384EB242B7
:101AF00001D1022623E0374EB24201D103261EE077
:101B0000354EB24201D1042619E0344EB24201D121
:101B1000052614E0324EB24201D106260FE0314EC6
:101B2000B24201D107260AE02F4EB24201D1082667
:101B300005E02E4EB24201D1092600E00A268F07A9
:101B40003F0FBE4030431F4E8F0846F82700284EF7
:101B50003068A0435E6806F48036B6F5803F00D159
:101B60002043234E3060361D3068A0435E6806F483
:101B70000036B6F5003F00D120431D4E361D3060C3
:101B8000361D3068A0435E6806F48016B6F5801FE7
:101B900000D12043164E08363060361D3068A04311
:101BA0005E6806F40016B6F5001F00D12043104E03
:101BB0000C363060491C1029FFF416AFF8BD000048
:101BC000443802400838014000000240000402404E
:101BD00000080240000C02400010024000140240C5
:101BE00000180240001C0240002002400024024075
:101BF000003C0140024613690B400BB1012000E09C
:101C0000002070470AB1816101E00B0483617047D5
:101C1000014800687047000000000020024800688A
:101C2000401C0149086070470000002010B50D48B5
:101C3000006840F400700B4908600846006840F4F2
:101C4000806008600846006840F4807008600320E7
:101C500000F0E2F8002000F007F800F019F800208A
:101C600010BD0000003C024070B504460748006803
:101C70004FF47A71B0FBF1F5284601F056F90022D5
:101C80002146501E00F089F8002070BD0800002099
:101C900010B5052000F0C0F8002211466FF00B00CF
:101CA00000F07BF8002211466FF00A0000F075F892
:101CB000002211466FF0090000F06FF80022114673
:101CC000501F00F06AF800221146101F00F065F85E
:101CD00000221146901E00F060F800221146501EAE
:101CE00000F05BF810BD70B504460D4616460CB901
:101CF000012070BD94F8390028B9002084F838001C
:101D0000204601F0EDFB242084F839002068C068EB
:101D100020F400502168C860204602F0CBF820680B
:101D2000006920F49040216808612068406920F033
:101D30002A00216848612068006920F00F002168AE
:101D40000861206800692843216808612068C0682C
:101D500020F400602168C8602068C06830432168B2
:101D6000C8602068C06840F400502168C860002046
:101D7000E063202084F8390084F83A000020B8E7B6
:101D800000BF00F01F02012191404209920002F1C0
:101D9000E022C2F8001100BF70472DE9F05F8046D5
:101DA0000D461646002701F0F5FD074639462A463E
:101DB000334601F00700C0F1070ABAF1040F02D957
:101DC0004FF0040A01E0C0F1070AD14600F1040A0D
:101DD000BAF1070F02D24FF0000A01E0A0F1030AA6
:101DE000D4464FF0010A0AFA09FAAAF1010A0AEAEE
:101DF000020A0AFA0CFA4FF0010B0BFA0CFBABF1DA
:101E0000010B0BEA030B4AEA0B042146404601F0A2
:101E1000C9FDBDE8F09F000000BF00F00702064BBF
:101E200019684FF6FF031940044B0B4343EA0221A4
:101E3000014B196000BF70470CED00E00000FA058F
:101E400010B50446D4F8B40302F060FC10BD70B5C0
:101E500004460D46C5EBC50304F1380101EB8301CF
:101E6000CA682946D4F8B40302F0A0FB70BD70B56F
:101E700004460D46C5EBC50304F5EE7101EB830185
:101E8000CA682946D4F8B40302F0FDFB70BD10B552
:101E90000446D4F8B40302F03CFC10BD70B504460F
:101EA0000D4605F08000802808D105F07F00C0EBCA
:101EB000C00104F1380000EB810605E0C5EBC50167
:101EC00004F5EE7000EB81060020B07005F07F0095
:101ED0003070C5F3C010707000BF94F88003012803
:101EE00001D1022070BD012084F8800300BF31467B
:101EF000206803F05DF800BF002084F8800300BF75
:101F000000BFEFE72DE9F04705460E4690461F4615
:101F10004FF0000906F08000802808D106F07F000D
:101F2000C0EBC00105F1380000EB810407E006F0CA
:101F30007F00C0EBC00105F5EE7000EB810406F0F8
:101F40007F00207006F08000C0096070C4F808802F
:101F5000E770607808B12078E080022F01D100207E
:101F6000207100BF95F88003012802D10220BDE84E
:101F7000F087012085F8800300BF2146286802F021
:101F800099FE00BF002085F8800300BF4846EEE7B9
:101F90002DE9F04104460E461746984606F07F00AC
:101FA000C0EBC00104F5EE7000EB8105EF60C5F8F1
:101FB00014800020A861687006F07F0028702069F6
:101FC000012800D12F6100BF94F88003012802D1BD
:101FD0000220BDE8F081012084F8800300BF06F0F4
:101FE0007F0028B9227C2946206802F0E7FE04E041
:101FF000227C2946206803F065F800BF002084F8A1
:10200000800300BF00BFE4E770B504460D4605F04D
:102010008000802808D105F07F00C0EBC00104F1EA
:10202000380000EB810605E0C5EBC50104F5EE7054
:1020300000EB81060120B07005F07F003070C5F321
:10204000C010707000BF94F88003012801D10220F5
:1020500070BD012084F8800300BF3146206802F083
:10206000EBFF05F07F0028B9217C04F56172206840
:1020700002F07CFF00BF002084F8800300BF00BF97
:10208000E6E72DE9F04104460E461746984606F06D
:102090007F00C0EBC00104F1380000EB8105EF6068
:1020A000C5F814800020A8610120687006F07F0048
:1020B00028702069012800D12F6100BF94F88003A7
:1020C000012802D10220BDE8F081012084F88003BC
:1020D00000BF06F07F0028B9227C2946206802F064
:1020E0006DFE04E0227C2946206802F0EBFF00BF71
:1020F000002084F8800300BF00BFE4E72DE9FC5F07
:10210000044626684FF0000B002001908146002510
:1021100000908046F74F206803F076F900286CD1D4
:10212000206803F0A9F908B9BDE8FC9F206803F016
:10213000A3F900F00200022805D12068406900F0F0
:10214000020021684861206803F096F900F400203D
:10215000B0F5002F7ED10025206803F063F90190CF
:1021600075E0019800F0010000286CD0E9B2206809
:1021700003F077F9814609F00100E8B3012106F583
:10218000306000EB45108160206901282BD1C5EB40
:10219000C50104F5EE7000EB8100816806F5306042
:1021A00000EB45100069C0F31200091AC5EBC50227
:1021B00004F5EE7000EB82008161C5EBC50104F50A
:1021C000EE7000EB8100C5EBC502C16804F5EE704E
:1021D00000EB820080680144C5EBC50204F5EE7097
:1021E00000EB8200C160E9B22046FFF740FE2069A3
:1021F000012811D105B901E00EE0B2E2C5EBC5013D
:1022000004F5EE7000EB8100406928B904F56172B5
:102210000121206802F0AAFE09F00800082808D170
:10222000204600F007FB082106F5306000EB451062
:10223000816009F01000102805D1102106F53060EA
:1022400000EB451081606D1C0198400801900198D9
:10225000002800E000E084D1206803F00DF900F4CC
:102260008020B0F5802F7DD1206803F0D2F8019056
:10227000002585E0019800F0010000287CD0E9B23B
:10228000206803F0D8F8814609F00100F0B301207E
:10229000A840009040F6340080590099884340F6E9
:1022A00034018851012106F5106000EB4510816072
:1022B0002069012815D1C5EBC50104F1380000EBF8
:1022C0008100C5EBC502C16804F1380000EB820053
:1022D00080680144C5EBC50204F1380000EB8200C0
:1022E000C160E9B22046FFF7B2FD2069012810D194
:1022F00065B9C5EBC50104F1380000EB8100406908
:1023000020B904F561720121206800E001E002F0CB
:102310002DFE09F00800082805D1082106F51060F7
:1023200000EB4510816009F01000102805D1102144
:1023300006F5106000EB4510816009F04000402870
:1023400005D1402106F5106000EB4510816009F0D1
:102350000200022805D1022106F5106000EB4510AD
:10236000816001E010E007E009F08000802803D1DF
:102370002946204601F032FB6D1C0198400801906F
:10238000019800287FF476AF206803F075F800F01C
:102390000040B0F1004F10D140F60400805920F009
:1023A000010140F604008151204600F01CFA20682B
:1023B000406900F0004021684861206803F05CF843
:1023C00000F40060B0F5006F0ED140F608008059AF
:1023D00000F0010010B1204600F036FA2068406994
:1023E00000F4006021684861206803F045F800F4BB
:1023F0008050B0F5805F5CD140F60400805920F039
:10240000010140F6040081510021206802F0C2FF62
:102410004FF0000B0CE0FF2106F5106000EB4B10B5
:10242000816006F5306000EB4B1081600BF1010B11
:1024300060685845EFD84FF0FF3140F618008151E1
:10244000001D805940F0011140F61C008151206BA5
:1024500070B1D6F8840840F00B01C6F8841840F635
:102460004400805940F00B0140F6440081510EE0D9
:1024700040F61400805940F00B0140F614008151E1
:10248000001F805940F00B014FF401608151D6F8D4
:10249000000820F4FE60C6F80008217C04F5617293
:1024A000206802F063FD2068406900F480502168D4
:1024B0004861206802F0E0FF00F40050B0F5005FD2
:1024C0006FD1206802F058FC2068C06820F470507A
:1024D0002168C860206802F075FF68B90021E160DA
:1024E0004FF4007161612068C06840F410502168A9
:1024F000C86084E00095BA0A0321E160402161616F
:1025000000F0A4FA07469848874209D397488742C3
:1025100006D22068C06840F470502168C8606EE040
:102520009248874209D39248874206D22068C06801
:1025300040F460502168C86061E08D48874209D34B
:102540008C48874206D22068C06840F45050216809
:10255000C86054E08748874209D38748874206D23B
:102560002068C06840F440502168C86047E0824855
:10257000874209D38148874206D22068C06840F468
:1025800030502168C8603AE07C4887420AD37C48D2
:10259000874207D22068C06840F420502168C86094
:1025A0002DE035E07648874209D37648874206D247
:1025B0002068C06840F410502168C8601FE071486E
:1025C000874209D37048874206D22068C06840F429
:1025D00000502168C86012E06B48874209D36B48FD
:1025E000874206D22068C06840F4E0502168C86085
:1025F00005E02068C06840F4C0502168C8602046EB
:1026000000F0D8F82068406900F400502168486163
:10261000206802F031FF00F01000102845D120683A
:10262000806920F0100021688861D6F8208008F0C9
:102630000F00C0EBC00104F5EE7000EB810AC8F397
:10264000434002281AD147F6F07008EA000030B380
:10265000C8F30A123046DAF80C1002F013FFC8F380
:102660000A11DAF80C000844CAF80C00C8F30A1181
:10267000DAF818000844CAF8180010E0C8F343401C
:1026800006280CD1082204F56171304602F0FAFEEA
:10269000C8F30A11DAF818000844CAF818002068CC
:1026A000806940F0100021688861206802F0E4FE33
:1026B00000F00800082808D1204600F09BF82068A8
:1026C000406900F0080021684861206802F0D4FEEB
:1026D00000F48010B0F5801F09D1E9B2204600F067
:1026E00057F82068406900F480102168486120682C
:1026F00002F0C2FE00F40010B0F5001F09D1E9B2EB
:10270000204600F04EF82068406900F4001021686F
:102710004861206802F0B0FE00F08040B0F1804FC8
:1027200008D12046FFF78CFB2068406900F080400C
:1027300021684861206802F09FFE00F00400042830
:102740000FD12068D0F8048008F00400042802D1DA
:102750002046FFF79CFB2068406840EA080021689B
:10276000486000BFE0E40000C0ACD800C0E1E40075
:102770000024F40080730601A0491A01002D3101E4
:1027800040A44C0100366E0120ABA6010048E801D0
:1027900070B504460D462946D4F8B40301F0E2FFB3
:1027A00070BD70B504460D462946D4F8B40301F057
:1027B000DCFF70BD70B504460125E06810B1022849
:1027C00004D101E0002503E0012501E0012500BF5F
:1027D00000BF2946D4F8B40302F024F8D4F8B403B7
:1027E00001F0E6FF70BD10B50446D4F8B40302F062
:1027F00001F810BD10B50446D4F8B40302F001F896
:1028000010BD70B504460D4600BF94F88003012842
:1028100001D1022070BD012084F8800300BF294649
:10282000206802F040FE00BF002084F8800300BF53
:1028300000BFEFE710B5044604F56171D4F8B403A6
:1028400001F0FEFF10BD000010B50446D4F8B4033B
:1028500002F037F82068D0F8000E40F0010021683F
:10286000C1F8000E206A28B10348006840F0060055
:102870000149086010BD000010ED00E070B504468D
:102880000D4600266D48006800F00F00A84209D2EE
:102890006A490D700846006800F00F00A84201D098
:1028A000012070BD207800F00200022807D16448A2
:1028B000006820F0F000A1680843614908602078B2
:1028C00000F00100002877D06068012807D15C483B
:1028D00008380068C0F34040B8B90120E1E76068FB
:1028E000022802D06068032807D1554808380068DC
:1028F000C0F3406048B90120D3E751480838006868
:10290000C0F3400008B90120CBE74D48006820F033
:102910000300616808434A490860FFF779F90646F1
:102920006068012810D108E0FFF772F9801B41F2BE
:102930008831884201D90320B3E74148006800F09C
:102940000C000428F0D137E06068022810D108E0BC
:10295000FFF75EF9801B41F28831884201D90320DC
:102960009FE73748006800F00C000828F0D123E00A
:102970006068032810D108E0FFF74AF9801B41F294
:102980008831884201D903208BE72D48006800F088
:102990000C000C28F0D10FE008E0FFF739F9801B9C
:1029A00041F28831884201D903207AE7244800683F
:1029B00000F00C000028F0D12048006800F00F0063
:1029C000A84209D91D490D700846006800F00F00A3
:1029D000A84201D0012064E7207800F00400042818
:1029E00007D11748006820F4E050E1680843144913
:1029F0000860207800F00800082808D11048006816
:102A000020F46040216940EAC1000D49086000F0EF
:102A10004FF80B49096801F0F001F02292FAA2F296
:102A2000B2FA82F2D140074A515CC84006490860B8
:102A30000020FFF719F9002033E70000003C0240B6
:102A4000083802400E5C00080800002001480068B9
:102A5000704700000800002000B5FFF7F7FF0749A6
:102A6000096801F4E0514FF4E05292FAA2F2B2FA8E
:102A700082F2D140024A515CC84000BD0838024091
:102A80000E5C000800B5FFF7E1FF0749096801F493
:102A900060414FF4604292FAA2F2B2FA82F2D1405F
:102AA000024A515CC84000BD083802400E5C000874
:102AB00070B50021002200230020274C246804F078
:102AC0000C0424B1042C04D0082C41D103E0234889
:102AD00040E023483EE0204C241F246804F03F01DE
:102AE0001D4C241F246804F4800484B11C4CB4FBE6
:102AF000F1F5194C241F246847F6C076344096FA45
:102B0000A6F6B6FA86F6F44005FB04F20FE0134C85
:102B1000B4FBF1F5104C241F246847F6C07634400E
:102B200096FAA6F6B6FA86F6F44005FB04F20A4CCD
:102B3000241F246804F440344FF4403595FAA5F579
:102B4000B5FA85F5EC40641C6300B2FBF3F001E0DC
:102B5000024800BF00BF70BD083802400024F400E6
:102B6000001BB70038B504460025207800F00100AE
:102B7000002848D0DE48006800F00C0004280DD082
:102B8000DB48006800F00C00082811D1D848001F6D
:102B9000006800F48000B0F5800F09D1D4480838EF
:102BA0000068C0F3404070B3606860BB012038BD6E
:102BB0002079CF49891F0870606890B1FFF728F825
:102BC000054606E0FFF724F8401B642801D90320DE
:102BD000EDE7C74808380068C0F340400028F1D04E
:102BE00011E0FFF715F8054606E0FFF711F8401B66
:102BF000642801D90320DAE7BD4808380068C0F32B
:102C000040400028F1D1207800F00200022869D16C
:102C1000B748006800F00C0058B1B548006800F0F3
:102C20000C00082821D1B248001F006800F4800081
:102C3000D8B9AF4808380068C0F3400020B1E06858
:102C4000012801D00120B2E7A9480838006820F027
:102C5000F800F82292FAA2F2B2FA82F221699140C7
:102C60000843A349083908603CE0E06828B3012024
:102C7000A0490860FEF7CCFF054606E0FEF7C8FF56
:102C8000401B022801D9032091E7994808380068C1
:102C9000C0F340000028F1D095480838006820F0C3
:102CA000F800F82292FAA2F2B2FA82F22169914077
:102CB00008438F490839086014E000208D490860F6
:102CC000FEF7A6FF054606E0FEF7A2FF401B02281E
:102CD00001D903206BE7864808380068C0F340003C
:102CE0000028F1D1207800F0080008282CD1606974
:102CF000A8B1012080490860FEF78AFF054606E07A
:102D0000FEF786FF401B022801D903204FE77848D1
:102D10006C300068C0F340000028F1D014E00020BF
:102D200075490860FEF774FF054606E0FEF770FF80
:102D3000401B022801D9032039E76D486C30006838
:102D4000C0F340000028F1D1207800F004000428EE
:102D500057D100BF0020009065483830006840F02F
:102D600080506349383108600846006800F08050A0
:102D7000009000BF00BF6148006840F480705F4968
:102D80000860FEF745FF054606E0FEF741FF401BE1
:102D9000022801D903200AE75848006800F480702F
:102DA0000028F2D0207A524968310870A068A0B19A
:102DB000FEF72EFF054608E0FEF72AFF401B41F212
:102DC0008831884201D90320F1E64948683000681B
:102DD000C0F340000028EFD013E0FEF719FF0546CE
:102DE00008E0FEF715FF401B41F28831884201D907
:102DF0000320DCE63E4868300068C0F3400000284D
:102E0000EFD1A069F0B33A48006800F00C00082840
:102E100069D0A069022850D1002036490866FEF723
:102E2000F7FE054606E0FEF7F3FE401B022801D937
:102E30000320BCE62E4808380068C0F34060002834
:102E4000F1D1D4E90701084347F6C07292FAA2F221
:102E5000B2FA82F2616A914008430122A16AC2EB90
:102E600051014FF4403292FAA2F2B2FA82F291404A
:102E700008434FF0706292FAA2F2B2FA82F2E16A6B
:102E8000914000E031E008431949091F0860012022
:102E900018490866FEF7BCFE054606E0FEF7B8FED8
:102EA000401B022801D9032081E611480838006838
:102EB000C0F340600028F1D017E000200D490866FB
:102EC000FEF7A6FE054606E0FEF7A2FE401B02281E
:102ED00001D903206BE6064808380068C0F340605B
:102EE0000028F1D101E0012061E600205FE600004A
:102EF0000838024000004742800E47420070004000
:102F0000042808D14FF0E021096941F004014FF095
:102F1000E022116107E04FF0E021096921F004018E
:102F20004FF0E02211617047704770B504462546A6
:102F3000681EB0F1807F01D301200FE0681E4FF0C2
:102F4000E02148610F214FF0FF3000F02BFD002001
:102F50004FF0E021886107200861002070BD10B5A6
:102F6000FFF7E2FF10BD7047704710B504460CB97B
:102F7000012010BD94F8390028B9002084F83800E9
:102F8000204600F00DF8022084F83900211D206849
:102F900000F0A6FE012084F839000020E9E70000D7
:102FA00038B504462068B0F1804F0FD100BF002033
:102FB00000905148006840F001004F490860084601
:102FC000006800F00100009000BF94E04B492068C9
:102FD000884218D100BF002000904748006840F0A8
:102FE0000200454908600846006800F002000090B1
:102FF00000BF00BF002203211D20FEF7CEFE1D20D2
:10300000FEF7BEFE77E03E49206888420FD100BF40
:10301000002000903848006840F0040036490860FD
:103020000846006800F00400009000BF63E03549E6
:103030002068884218D100BF002000902E48006808
:1030400040F008002C4908600846006800F00800BD
:10305000009000BF00BF032204213220FEF79DFE36
:103060003220FEF78DFE46E027492068884218D1BD
:1030700000BF002000902048006840F010001E496A
:1030800008600846006800F01000009000BF00BF14
:10309000012200213620FEF780FE3620FEF770FE6A
:1030A00029E01A492068884211D100BF0020009011
:1030B0001148001D006840F002000F49091D08601A
:1030C0000846006800F00200009000BF13E01049BD
:1030D000206888420FD100BF002000900648006899
:1030E00040F04000044908600846006800F04000D5
:1030F000009000BF00BF38BD4038024000040040CF
:1031000000080040000C0040001000400004014096
:103110000018004001460868C06840F001000A68D5
:10312000D0600868006840F001000A681060002064
:103130007047704710B5044620680069C0F340002E
:10314000D8B12068C068C0F34000B0B16FF0020091
:1031500021680861012020762068806900F0030062
:1031600018B12046FFF7E5FF05E0204600F0ADF876
:10317000204600F0ABF80020207620680069C0F3FC
:103180008000D8B12068C068C0F38000B0B16FF093
:10319000040021680861022020762068806900F41C
:1031A000407018B12046FFF7C4FF05E0204600F04C
:1031B0008CF8204600F08AF800202076206800690C
:1031C000C0F3C000D8B12068C068C0F3C000B0B17F
:1031D0006FF0080021680861042020762068C0692B
:1031E00000F0030018B12046FFF7A3FF05E02046DA
:1031F00000F06BF8204600F069F800202076206887
:103200000069C0F30010D8B12068C068C0F3001096
:10321000B0B16FF0100021680861082020762068A6
:10322000C06900F4407018B12046FFF782FF05E046
:10323000204600F04AF8204600F048F800202076AA
:103240002068006900F0010058B12068C06800F0F3
:10325000010030B16FF0010021680861204600F0E4
:1032600037F820680069C0F3C01058B12068C06802
:10327000C0F3C01030B16FF08000216808612046B3
:10328000FFF771FE20680069C0F3801058B1206814
:10329000C068C0F3801030B16FF040002168086151
:1032A000204600F075F820680069C0F3401058B15E
:1032B0002068C068C0F3401030B16FF02000216872
:1032C00008612046FFF750FE10BD704770470000B0
:1032D00038B50446244884422BD12448B0F9000074
:1032E00000EE900AF8EEE00AB0EE600A2048D0ED59
:1032F000000A204802F070FB1F48008880B11B487C
:10330000B0F9600000EE900AF8EEE00AB0EE600A54
:103310001A48D0ED000A1748D83002F05DFB21E0D2
:10332000174B124A60321349D8311648FDF770FB2B
:1033300018E01548844215D1002000900D4890ED0A
:10334000450ABDEEC00A10EE100A03B2094890ED1E
:103350000F0ABDEEC00A10EE100A01B200220B489F
:1033600000F0B8FB38BD0000CC140020500F002046
:1033700078000020C4040020840000208000002089
:10338000B0000020140300204415002090110020FC
:10339000704770472DE9F0470446206805682068AB
:1033A000C668206847694FF00008C14605F00F085D
:1033B000B8F1000F0AD105F0200038B106F0200066
:1033C00020B1204600F028FDBDE8F087B8F1000FDD
:1033D0006DD007F0010018B906F49070002866D08F
:1033E00005F0010030B106F4807018B1E06B40F0D8
:1033F0000100E06305F0040030B107F0010018B1EE
:10340000E06B40F00200E06305F0020030B107F02D
:10341000010018B1E06B40F00400E06305F0080023
:1034200030B107F0010018B1E06B40F00800E06334
:10343000E06B68B305F0200028B106F0200010B161
:10344000204600F0E9FC20684069C0F38019E06B79
:1034500000F0080010B9B9F1000F22D0204600F0AA
:10346000BBFC2068406900F04000B0B120684069B2
:1034700020F0400021684861606B50B11748616BD3
:103480000865606BFEF753F910B1606B016D8847FA
:103490000CE02046FFF77DFF08E02046FFF779FFAC
:1034A00004E02046FFF775FF0020E0638CE705F09D
:1034B000800030B106F0800018B1204600F0AEFE6A
:1034C00082E705F0400030B106F0400018B1204618
:1034D00000F092FC78E700BF76E70000C53D0008E9
:1034E00010B586B004465549206888421ED100BFF9
:1034F000002000905248006840F0100050490860D9
:103500000846006800F01000009000BF00BFC02017
:1035100001900220029000200390032004900720D5
:10352000059001A94748FEF757FA85E0464920680B
:10353000884228D100BF002000904148001F006849
:1035400040F400303E49091F08600846006800F456
:103550000030009000BF00BF602001900220029068
:1035600000200390032004900720059001A937480C
:10357000FEF732FA002201212620FEF70EFC26205B
:10358000FEF7FEFB58E032492068884229D100BF8F
:10359000002000902A48001F006840F4802028493D
:1035A000091F08600846006800F48020009000BFF2
:1035B00000BF4FF440700190022002900020039061
:1035C000032004900720059001A92048FEF704FA83
:1035D000002201212720FEF7E0FB2720FEF7D0FB89
:1035E0002AE01C492068884226D100BF00200090B4
:1035F0001348006840F02000114908600846006840
:1036000000F02000009000BF00BF4FF48440019004
:1036100002200290002003900320049008200590CF
:1036200001A90D48FEF7D8F9002201214720FEF735
:10363000B4FB4720FEF7A4FB06B010BD001001400C
:10364000443802400004024000440040000C0240A4
:1036500000480040001401400018024010B5034625
:1036600093F83A00202829D101B10AB9012010BDF0
:1036700000BF93F83800012801D10220F7E70120AC
:1036800083F8380000BF99629A85DA850020D863F4
:10369000222083F83A0000BF002083F8380000BFE2
:1036A0001868406940F001001C6860611868C068D3
:1036B00040F490701C68E0600020D8E70220D6E754
:1036C00010B5044600F00EF8082202490248FFF740
:1036D000C5FF10BDA300002068170020704700BF81
:1036E000FEE7000010B50121002058E02D4A125CD1
:1036F000FF2A52D12B4BC21C9A5CFE2A4DD10029C5
:103700004BD0421C9A5C0AB9012200E00022254CF1
:10371000431CE35C012B00D100E000231A43002A84
:103720003BD0204B821C9A5C0A2A36DA421C9A5CF7
:103730001D4B1A701B4B821C9A5C1B4B5A701B4A08
:103740001278012A04D0022A09D0032A22D111E0DA
:10375000154A527812B10222144B1A701BE0124A19
:1037600052781AB10322114B1A7002E001220F4B5A
:103770001A7010E00C4A52785AB901220B4B1A7099
:103780000B4A92ED000ADFED0B0A30EE200A82EDC3
:10379000000A00E000BF00BF0021421CD0B2082890
:1037A000A4DB10BDA3000020AB000020B40000206B
:1037B000B00000200000904210B50E480E4908608D
:1037C0000320486000210C488160C1604FF4002153
:1037D00001614FF44011416100218161C1610162C9
:1037E000416281620121C162FDF7E0FB08B1FDF792
:1037F0005DFA10BD006400409011002000B587B054
:1038000000BF002001904F48006840F010004D4973
:1038100008600846006800F01000019000BF00BF7B
:1038200000BF002001900846006840F0400008609A
:103830000846006800F04000019000BF00BF00BFD4
:10384000002001900846006840F002000860084629
:10385000006800F00200019000BF00BF00BF002020
:1038600001900846006840F00100086008460068C2
:1038700000F00100019000BF00BF00BF00200190D8
:103880000846006840F0080008600846006800F03C
:103890000800019000BF00BF00BF00200190084653
:1038A000006840F4807008600846006800F480708A
:1038B000019000BF00BF00BF0020019008460068D3
:1038C00040F0800008600846006800F08000019029
:1038D00000BF00BF00BF002001900846006840F014
:1038E000200008600846006800F02000019000BF3A
:1038F00000BF0220029001200390049002A9124808
:10390000FEF76AF86020029001200390049002A95B
:103910000E48FEF761F8012002900020039001207C
:10392000049002A90848FEF757F841F210000290EF
:10393000002003900120049002A90448FEF74CF8EF
:1039400007B000BD303802400014024000100240B1
:1039500010B50C480C4908604FF4E1304860002174
:1039600009488160C16001610421416100218161D8
:10397000C16100221146FEF7B6F908B1FDF796F9CC
:1039800010BD0000001401406817002000BFFEE7D2
:103990007047000002480068C0F302207047000032
:1039A0000CED00E010B5002807DA0A07140E054AEE
:1039B00000F00F031B1FD45403E00A07130E024A42
:1039C000135410BD18ED00E000E400E010B502480B
:1039D000FEF794FB10BD0000A81700202DE9F84F5A
:1039E00007460E46D7F800800025AA46C6EBC6015A
:1039F00007F1380000EB8104D4E90501451AA068FD
:103A0000A84200D2A568E81C4FEA900917E0D4E963
:103A10000501451AA068A84200D2A568E81C4FEA33
:103A20009009387CABB2F2B200904046E16801F0F8
:103A30004CFDE0682844E060A0692844A06108F5D6
:103A4000106000EB4610806980B2484506D9D4E981
:103A50000510884202D260690028D8D165B90120DA
:103A600000FA06FA40F6340050F8080020EA0A008E
:103A700040F6340141F808000020BDE8F88F00004E
:103A80002DE9F0412DED048B04460D4616461F46E8
:103A9000B0EE408AF0EE608AB0EE419A0A48606665
:103AA0000A48A066B0EE491AF0EE680AB0EE480A7D
:103AB0003B46324629462046D4F864C0E047BDEC78
:103AC000048BBDE8F0810000ED5B0008015C00089C
:103AD000704770472DE9F04104460D4616461F46D3
:103AE000DDF818804FF40070216B08600020216B16
:103AF0008860216BC8600820216B0861280A216B4F
:103B00000875206B4575310A206B8175206BC67571
:103B1000390A206B0176206B47764FEA1821206B1B
:103B20008176206B80F81B8000212046FDF7CEFCBB
:103B3000BDE8F08110B5FEF771F8FFF710FA10BD7F
:103B400010B592B000BF002000902C48006840F0F3
:103B500080502A4908600846006800F080500090B4
:103B600000BF00BF00BF002000902548006840F45F
:103B70004040234908600846006800F44040009037
:103B800000BF00BF01200690079002200C90410565
:103B90000D910C210E914FF4A8710F9102211091FB
:103BA0000721119106A8FEF7DDFF08B1FDF77EF8A9
:103BB0000F20019002200290002003904FF4A050AB
:103BC00004904FF480500590052101A8FEF756FEA1
:103BD00008B1FDF76BF8FEF739FF4FF47A71B0FBCF
:103BE000F1F42046FFF7A1F90420FFF789F900223C
:103BF0001146501EFEF7D1F812B010BD40380240F9
:103C0000007000401448006840F4700012490860D9
:103C10001248006840F001001049086000200F4978
:103C2000083108600D4800680D4908400B490860DC
:103C30000C48091D0860081F006820F48020091F37
:103C40000860002005490C3108604FF0006002490F
:103C5000803908607047000088ED00E000380240BD
:103C6000FFFFF6FE1030002410B50248FFF762FA9D
:103C700010BD0000CC14002070B505460C46074866
:103C8000074908600846446000218160C560016101
:103C9000FFF76BF90248FFF73DFA70BD00040040E2
:103CA000CC14002010B50248FFF744FA10BD000004
:103CB0004415002070B505460C46074807490860C2
:103CC0000846446000218160C5600161FFF74DF93D
:103CD0000248FFF71FFA70BD000C00404415002099
:103CE000002202682C4B98420ED0B0F1804F0BD0CE
:103CF0002A4B984208D02A4B984205D0294B98422B
:103D000002D0294B984201D1012300E000231BB1CE
:103D100022F070024B681A431F4B984220D0B0F13A
:103D2000804F1DD01D4B98421AD01D4B984217D082
:103D30001C4B984214D01C4B984211D01B4B9842FC
:103D40000ED01B4B98420BD01A4B984208D01A4BFE
:103D5000984205D0194B984202D0194B984201D194
:103D6000012300E000231BB122F44072CB681A4308
:103D700002608B68C3620B688362074B984202D073
:103D8000094B984201D1012300E000230BB10B69DC
:103D900003630123436170470000014000040040B9
:103DA00000080040000C00400004014000400140B9
:103DB000004401400048014000180040001C004041
:103DC0000020004070B50546AC6B0020E085E08423
:103DD0002046FFF7DEFA70BD0168C96821F49071D2
:103DE0000268D1600168496921F0010102685161EE
:103DF000202180F83A10704710B504462068C0684A
:103E000020F040002168C860202084F83900204656
:103E1000FFF764FC002010BD70B5044694F83A002A
:103E2000222844D1A068B0F5805F13D1A56A20692B
:103E300040B920684068C0F308002880A06A801C50
:103E4000A06219E020684068C0B22880A06A401CC7
:103E5000A06211E0206938B920684068C1B2A26A46
:103E6000501CA062117007E02068406800F07F01DC
:103E7000A26A501CA0621170E08D401E80B2E085E5
:103E800098B92068C06820F490702168C8602068E4
:103E9000406920F0010021684861202084F83A0040
:103EA0002046FFF70DFC002070BD0020FCE702203B
:103EB000FAE700002DE9F041044600252068056975
:103EC00025F44055E0680543206805612068C56811
:103ED00049F20C6085432169A06808436169084381
:103EE000E169084305432068C5602068456925F4F9
:103EF0004075A069054320684561E069B0F5004F51
:103F00007ED1C4492068884203D0C34920688842D2
:103F10005DD1FEF7B7FD00EBC00101EB0010616859
:103F20004900B0FBF1F06421B0FBF1F00601FEF7AF
:103F3000A9FD00EBC00101EB001061684900B0FB76
:103F4000F1F7FEF79FFD00EBC00101EB0010616887
:103F50004900B0FBF1F06421B0FBF1F000EBC001CF
:103F600001EB0010A7EB8000322101EBC0006421BF
:103F7000B0FBF1F000F0F80006EB4006FEF782FD22
:103F800000EBC00101EB001061684900B0FBF1F7E4
:103F9000FEF778FD00EBC00101EB001061684900FD
:103FA000B0FBF1F06421B0FBF1F000EBC00101EBDC
:103FB0000010A7EB8000322101EBC0006421B0FBB0
:103FC000F1F000F0070030442168886020E1FEF73E
:103FD00043FD00EBC00101EB001061684900B0FB3C
:103FE000F1F06421B0FBF1F00601FEF735FD00EBC6
:103FF000C00101EB001061684900B0FBF1F700E07F
:1040000045E0FEF729FD00EBC00101EB00106168FF
:104010004900B0FBF1F06421B0FBF1F000EBC0010E
:1040200001EB0010A7EB8000322101EBC0006421FE
:10403000B0FBF1F000F0F80006EB4006FEF70CFDD7
:1040400000EBC00101EB001061684900B0FBF1F723
:10405000FEF702FD00EBC00101EB001061684900B2
:10406000B0FBF1F06421B0FBF1F000EBC00101EB1B
:104070000010A7EB8000322101EBC0006421B0FBEF
:10408000F1F000F00700304421688860C0E0614929
:104090002068884203D06049206888425CD1FEF7DE
:1040A000F1FC00EBC00101EB001061688900B0FB7E
:1040B000F1F6FEF7E7FC00EBC00101EB00106168D0
:1040C0008900B0FBF1F06421B0FBF1F000EBC0011E
:1040D00001EB0010A6EB8000322101EB00106421FF
:1040E000B0FBF1F000F0F006FEF7CCFC00EBC001F5
:1040F00001EB001061688900B0FBF1F06421B0FBB6
:10410000F1F006EB0016FEF7BDFC00EBC00101EB81
:10411000001061688900B0FBF1F7FEF7B3FC00EB1B
:10412000C00101EB001061688900B0FBF1F064216F
:10413000B0FBF1F000EBC00101EB0010A7EB800039
:10414000322101EB00106421B0FBF1F000F00F0010
:104150003044216888605BE0FEF77EFC00EBC00124
:1041600001EB001061688900B0FBF1F6FEF774FC0A
:1041700000EBC00101EB001061688900B0FBF1F0B9
:104180006421B0FBF1F000EBC00101EB0010A6EBE5
:104190008000322101EB00106421B0FBF1F000F04F
:1041A000F006FEF759FC00EBC00101EB001061685E
:1041B0008900B0FBF1F06421B0FBF1F006EB0016D2
:1041C000FEF74AFC00EBC00101EB001061688900BA
:1041D000B0FBF1F7FEF740FC00EBC00101EB001073
:1041E00061688900B0FBF1F06421B0FBF1F000EBF5
:1041F000C00101EB0010A7EB8000322101EB0010A1
:104200006421B0FBF1F000F00F00304421688860B9
:10421000BDE8F0810010014000140140014691F812
:10422000390021282CD18868B0F5805F0FD10A6A47
:104230001088C0F308000B685860086918B9086A4C
:10424000801C086209E0086A401C086205E00B6AED
:10425000581C086218780B685860C88C401E80B2E1
:10426000C88458B90868C06820F080000B68D8601E
:104270000868C06840F040000B68D86000207047B4
:104280000220FCE710B50248FFF784F810BD0000DB
:10429000A816002010B50248FFF77CF810BD0000FA
:1042A000E816002010B50248FFF774F810BD0000B2
:1042B0002817002010B50248FFF76CF810BD000069
:1042C0006817002070B504460D46D4F8140229463C
:1042D000426820469047002070BD70B504460D46E8
:1042E00094F8FC01022802D0032811D100E000BF9D
:1042F000688801280BD10020C4F80402D4F8140205
:104300002946826820469047204600F04AF804E09B
:104310002946204600F01BF800BF00BF70BD70B5F5
:1043200006460C4615462B4622460021304600F034
:104330002FFA002070BD70B506460C4615462B4678
:1043400022460021304600F0C6FA002070BD70B54C
:1043500004460D468021204600F0A9FA002120469F
:1043600000F0A5FA70BD10B504460520C4F8F401AC
:1043700000231A461946204600F00AFA002010BD14
:1043800070B504460E4615460220C4F8F401A56136
:10439000E5612B4632460021204600F09CFA0020C1
:1043A00070BD10B504460420C4F8F40100231A4679
:1043B0001946204600F08FFA002010BD70B5044663
:1043C0000D46E888012804D029462046FFF7BFFFA4
:1043D0001BE094F8FC01022802D003280FD108E06A
:1043E0000020A060012204F108012046FFF7C8FF69
:1043F0000AE00122211D2046FFF7C2FF04E0294602
:104400002046FFF7A4FF00BF00BF70BDF8B504460B
:104410000E467088001208287FD2DFE800F07E0484
:104420000C207E7E5F6D207CD4F810120A686946ED
:104430009047054676E0207C40B9D4F81402816AA2
:104440006846884705460221697007E0D4F81402DF
:10445000C16A6846884705460221697062E0B07803
:10446000062834D2DFE800F0030B131B232B207C3B
:10447000D4F810124A686946904705462CE0207C23
:10448000D4F810128A6869469047054624E0207CDB
:10449000D4F81012CA686946904705461CE0207C93
:1044A000D4F810120A6969469047054614E0207C4A
:1044B000D4F810124A696946904705460CE0207C02
:1044C000D4F810128A6969469047054604E03146DF
:1044D0002046FFF73CFFF8BD00BF23E0207C30B949
:1044E000D4F81402416B6846884705461AE0314605
:1044F0002046FFF72CFFEEE7207C48B9D4F81402E1
:10450000016B684688470546072169700AE004E0A8
:1045100031462046FFF71BFFDDE731462046FFF717
:1045200016FFD8E700BFBDF8000088B1F08878B169
:10453000F088BDF80010884202DDBDF8000000E000
:10454000F0880090BDF8002029462046FFF718FFAC
:1045500000BFC0E770B504460D4694F8FC01022880
:1045600002D0032811D100E000BF0120E060D4F8A0
:10457000040218B1E06840F00200E060022204F199
:104580000C012046FFF7FCFE04E029462046FFF719
:10459000DEFE00BF00BF70BD70B504460D46294663
:1045A000D4F82002FDF77AFC002070BD2DE9F0411F
:1045B00004460E461746002E54D104F11405D4F8D3
:1045C000F401022843D1D5E90201884210D9D5E986
:1045D0000201401AA860288982B239462046FFF7B6
:1045E000AAFE00231A461946204600F0D1F82EE014
:1045F000E9686868B0FBF1F201FB1200B8B9E9683C
:104600006868884213D36868D4F8F81188420ED2DB
:10461000002211462046FFF78EFE0020C4F8F80164
:1046200000231A461946204600F0B2F80FE0D4F8ED
:104630001402C06840B194F8FC01032804D1D4F8F6
:104640001402C168204688472046FFF78CFE94F884
:104650000002012814D1204600F061F9002084F8FE
:1046600000020DE0D4F81402406948B194F8FC014E
:10467000032805D1D4F814023146426920469047F8
:104680000020BDE8F0812DE9F04105460E461746B1
:104690005EBB05F58274D5F8F401032833D1D4E963
:1046A0000201884210D9D4E90201401AA060D4E97D
:1046B0000201884201D2A06800E0E06882B2394677
:1046C0002846FFF72CFE1EE0D5F81402006940B121
:1046D00095F8FC01032804D1D5F814020169284695
:1046E00088472846FFF75DFE0DE0D5F81402806983
:1046F00048B195F8FC01032805D1D5F814023146DC
:104700008269284690470020BDE8F08101460020DC
:10471000704710B50446012084F8FC012179D4F8D3
:104720001402426820469047002010BD10B5024692
:10473000D2F8203201F08000802809D101F07F00FA
:10474000C0EBC00403F1380000EB8400807810BD9A
:1047500001F07F00C0EBC00403F5EE7000EB8400B5
:104760008078F4E702460020704702460020704738
:104770002DE9F04104460F4615461E462B463246AB
:104780003946D4F82002FDF7BDFB0020BDE8F081DA
:104790002DE9F04104460D4616461F463B4632467B
:1047A0002946D4F82002FDF7F3FB0020BDE8F08194
:1047B00010B504464023002211462046FFF7D8FFDB
:1047C00040214FF48870015140230022802120466F
:1047D000FFF7CEFF40212162012084F8FC01D4F8CC
:1047E000180228B12179D4F8140242682046904773
:1047F000002010BD014691F8FD0181F8FC01002068
:10480000704710B5044694F8FC01032808D1D4F889
:104810001402C06920B1D4F81402C1692046884747
:10482000002010BD024611740020704770B5044688
:104830000D462946D4F82002FDF7E3FF002070BDA5
:1048400070B504460D46294604F5027000F053F891
:104850000120C4F8F40140F20E20005BC4F8F80116
:1048600094F8080200F01F0020B1012808D00228A7
:1048700012D10BE004F50271204600F011F913E0AB
:1048800004F50271204600F0EFF90DE004F5027125
:10489000204600F03EF907E094F8080200F080019D
:1048A000204600F004F800BF00BF002070BD70B5C6
:1048B00004460D462946D4F82002FDF7A5FB00204A
:1048C00070BD014691F8FC0181F8FD01042081F8DA
:1048D000FC01002070472DE9F04104460D461646C4
:1048E0001F463B4632462946D4F82002FDF7C9FB55
:1048F0000020BDE8F0810A7802704A7842708B7817
:10490000CA7803EB022242800B794A7903EB022238
:1049100082808B79CA7903EB0222C28070470146FC
:104920000020704770B504460D46A888F8B9E8889D
:10493000E8B9A87800F07F0694F8FC01032804D1B8
:1049400029462046FFF703FD15E084F8FE61314655
:104950002046FFF76BFF2046FFF723FD1EB1022024
:1049600084F8FC0107E0012084F8FC0103E02946FB
:104970002046FFF7ECFC70BD70B504460D460226DC
:10498000D4F8140238B1D4F814022946026820463B
:10499000904700B90026304670BD000070B504464F
:1049A0000D46A8783449087008460078012804DDCF
:1049B00029462046FFF7CBFC5BE094F8FC01022877
:1049C00002D003284FD11CE02B480078A8B12A4818
:1049D00000786060032084F8FC01274801782046B5
:1049E000FFF7CAFF022804D129462046FFF7AFFC93
:1049F00070BD2046FFF7D5FC02E02046FFF7D1FC52
:104A000036E01D48007870B9022084F8FC011A488D
:104A100000786060184801782046FFF753FC204674
:104A2000FFF7BFFC1EE0144909786068884216D081
:104A300021792046FFF746FC0F48007860600E4859
:104A400001782046FFF798FF022804D12946204626
:104A5000FFF77DFCCCE72046FFF7A3FC02E02046F1
:104A6000FFF79FFC04E029462046FFF770FC00BFDB
:104A700000BF00BFBCE700000400002070B5044682
:104A80000D46688801280AD1C4F80402D4F814023B
:104A900029468268204690472046FFF782FC70BD79
:104AA00070B505460C46002660780A2829D2DFE852
:104AB00000F01923281E280A0528140F214628462D
:104AC000FFF7A4FC22E021462846FFF72BFF1DE05C
:104AD00021462846FFF762FF18E021462846FFF7E7
:104AE0006DFC13E021462846FFF734FD0EE0214619
:104AF0002846FFF7C3FF09E021462846FFF7EDFBF4
:104B000004E021462846FFF722FC00BF00BF3046E4
:104B100070BD2DE9F04105460E464FF0000834798E
:104B2000307800F06000202808D1D5F81402314612
:104B30008268284690470020BDE8F0817078002800
:104B400055D001282AD003287AD195F8FC010228F3
:104B500002D003281BD107E02CB1802C03D02146C2
:104B60002846FFF7A4FE17E0708830B92CB1802CDE
:104B700003D021462846FFF79AFED5F814023146A5
:104B80008268284690472846FFF70BFC04E0314630
:104B90002846FFF7DCFB00BF00BF62E095F8FC0190
:104BA000022802D003281BD107E02CB1802C03D0AF
:104BB00021462846FFF77BFE17E0708878B904F09D
:104BC0007F0048B121462846FFF7E6FCD5F81402DD
:104BD00031468268284690472846FFF7E2FB04E00A
:104BE00031462846FFF7B3FB00BF00BF39E095F818
:104BF000FC01022802D003282BD107E004F07F003B
:104C000018B121462846FFF752FE27E004F0800045
:104C1000802806D104F07F0105F1140000EB01109B
:104C200005E004F07F0105F5827000EB01100746F6
:104C300021462846FFF77AFD18B10120386002E0CE
:104C40000EE000203860022239462846FFF798FB24
:104C500004E031462846FFF77AFB00BF00BF00E0C2
:104C600000BF00BF404667E770B504460D4600260A
:104C700094F8FC01032814D1287901280CDCD4F81D
:104C800014022946826820469047E88840B93EB918
:104C90002046FFF786FB03E029462046FFF757FB37
:104CA00004E029462046FFF752FB00BF00BF00206A
:104CB00070BD000010B50246487801282BD140F69F
:104CC0001C0080580C780123A3409BB2184340F687
:104CD0001C039850087802F5106303EB401000683D
:104CE00000F40040F0BB0889C0F30A00CB7840EA2A
:104CF00083400B7840EA835040F0805040F40040FD
:104D000002F5106404EB43131B6818430B7804EBA3
:104D1000431318602CE040F61C0080580C780123E7
:104D2000A340144C04EA0343184340F61C03985074
:104D3000087802F5306303EB4010006800F400408F
:104D400080B90889C0F30A00CB7840EA834040F07C
:104D5000805040F400400B7802F5306404EB4313BC
:104D60001B6800E004E018430B7804EB4313186061
:104D7000002010BD0000FFFF01464FF410604058B6
:104D8000C20AD2024FF41060425040F60800405868
:104D900000F00600042807D14FF41060405840F09E
:104DA00003024FF41060425040F60400405840F4B3
:104DB000807240F6040042500020704730B5034630
:104DC000487801287DD1486918BB087803F510643C
:104DD00004EB40100069644C20400C7803F510652A
:104DE00005EB4414206108782C4604EB4010006960
:104DF00040F40025087804EB40100561087804EBC6
:104E000040100069C50CED04087804EB4010056102
:104E100037E0087803F5106404EB40100069C50C16
:104E2000ED04087804EB40100561087804EB4010AD
:104E300004694D480440087803F5106505EB4010FF
:104E400004618C684869A04201D988684861087883
:104E500003F5106404EB4010006940F40025087865
:104E600004EB40100561087804EB401004694869C0
:104E7000C0F312000443087803F5106505EB4010F9
:104E80000461012A07D1087803F5106404EB40108F
:104E90000D6945610BE0486948B140F63400C058DF
:104EA0000D780124AC40204340F63404E0500878EB
:104EB00003F5106404EB4010006840F004450878E6
:104EC00000E003E004EB401005604AE0087803F5D9
:104ED000306404EB40100069C50CED04087804EB65
:104EE00040100561087804EB401000691E4C20401A
:104EF0000C7803F5306505EB44142061486908B16E
:104F000088684861087803F5306404EB4010006954
:104F100040F40025087804EB40100561087804EBA4
:104F2000401000698C68C4F3120420430C7803F528
:104F3000306505EB44142061012A06D1087803F599
:104F4000306404EB4010CD684561087803F53064A7
:104F500004EB4010006840F00445087804EB401072
:104F60000560002030BD0000FFFF07E010B50346DC
:104F70000024C3F8104BD3F8100B40F40024C3F8FE
:104F8000104BD3F8100B40F01804C3F8104BD3F8B3
:104F9000100B40F0C044C3F8104B012906D1C3F8F0
:104FA000142B4FF080244FF43060C450002010BD0B
:104FB00010B50246487801281ED1087802F5106322
:104FC00003EB4010006820F40014087803EB401055
:104FD0000460C878032802D0C87802282AD108784B
:104FE00002F5106303EB4010006840F0805408782D
:104FF00003EB401004601DE0087802F5306303EB1A
:105000004010006820F40014087803EB401004609E
:10501000C878032802D0C87802280BD1087802F596
:10502000306303EB4010006840F08054087803EBD5
:1050300040100460002010BD10B5024648780128D9
:105040001FD1087802F5106303EB4010006800F0F0
:10505000004048B9087803EB4010006820F0804415
:10506000087803EB40100460087802F5106303EB46
:105070004010006840F40014087803EB401004600E
:105080001EE0087802F5306303EB4010006800F082
:10509000004048B9087803EB4010006820F08044D5
:1050A000087803EB40100460087802F5306303EBE6
:1050B0004010006840F40014087803EB40100460CE
:1050C000002010BDF8B505460C461646002760784E
:1050D00001287DD1606918BB207805F5106101EBCE
:1050E00040100069AA490840217805F5106202EBDA
:1050F000411108612078114601EB4010006940F42D
:105100000022207801EB40100261207801EB401072
:105110000069C20CD204207801EB401002614FE01C
:10512000207805F5106101EB40100069C20CD20433
:10513000207801EB40100261207801EB40100069FB
:1051400093490840217805F5106202EB411108618E
:10515000A16860690844401EB0FBF1F08C49C94366
:1051600001EAC040217802EB411109690843217826
:1051700002EB411108612078114601EB40100169F2
:105180006069C0F312000143207802EB4010016116
:10519000E078012814D12078114601EB4010006915
:1051A00020F0C042207801EB40100261207801EB32
:1051B0004010006940F00052207801EB401002617D
:1051C000012E09D1207805F5106101EB401000E0B7
:1051D0004BE0226942610EE0E07801280BD0606963
:1051E00048B140F6340040592278012191400843EB
:1051F00040F634014851E07801281ED140F60800FD
:10520000405900F4807060B9207805F5106101EB19
:105210004010006840F00052207801EB401002601E
:105220000BE0207805F5106101EB4010006840F0BC
:105230008052207801EB40100260207805F5106163
:1052400001EB4010006840F00442207801EB401070
:105250000260E078012807D10096A08A83B2227804
:105260002846E16800F031F98FE0207805F53061DB
:1052700001EB40100069C20CD204207801EB401011
:105280000261207801EB401001694148014020781B
:1052900005F5306202EB401001616069C0B9207809
:1052A000114601EB40100069A168C1F312010843E7
:1052B000217802EB411108612078114601EB401082
:1052C000006940F40022207801EB4010026125E0E3
:1052D000A16860690844401EB0FBF1F087B22078F5
:1052E00005F5306101EB401000692949C94301EA25
:1052F000C7410843217805F5306202EB411108618E
:105300002078114601EB40100169A0687843C0F392
:1053100012000843217802EB41110861012E06D1E9
:10532000207805F5306101EB4010E2684261E078D9
:1053300001281ED140F60800405900F4807060B981
:10534000207805F5306101EB4010006840F0005214
:10535000207801EB401002600BE0207805F5306109
:1053600001EB4010006840F08052207801EB4010C3
:105370000260207805F5306101EB4010006840F0D4
:105380000442207801EB401002600020F8BD0000CC
:10539000FFFF07E010B502460023202040EA8110FD
:1053A000106100BF581C0346054CA04201D90320E0
:1053B00010BD106900F020002028F3D00020F7E78E
:1053C000400D03000146002040F60802525802F04A
:1053D000060202B917E040F60802525802F006022F
:1053E000022A06D040F60802525802F00602062AA7
:1053F00001D1032007E040F60802525802F00602ED
:10540000042A00D1022070470146486900F00100DB
:105410007047014640F618004258001D40580240AF
:1054200090B27047014640F618004258001D40589F
:105430000240100C704730B502464FF40165AB587E
:1054400040F63405AC5824FA01F505F0010543EAAD
:10545000C51302F5106505EB4115AD6805EA0300BB
:1054600030BD024602F5306303EB4113986840F605
:1054700014039B58184070470146002048698A6908
:105480001040704730B503460024D01C850800BF8B
:1054900005E04FF48050C0580860641C091DAC4200
:1054A000F7D3084630BD0246D2F8000820F4FE606B
:1054B000C2F80008D2F800084FF4FE6303EA0113B3
:1054C0001843C2F8000800207047F0B50446059E56
:1054D000002700257EB9D81C870800BF09E0D1F855
:1054E00000C004F5805000EB0230C0F800C06D1C15
:1054F000091DBD42F3D30020F0BD00BFFEE702E06E
:1055000008C8121F08C1002AFAD17047704700204E
:1055100001E001C1121F002AFBD17047D0ED000A43
:10552000F4EEC00AF1EE10FA01DD80ED000AD0EDD4
:10553000000AB1EE401AF4EEC10AF1EE10FA03D2FD
:10554000F1EE400AC0ED000A7047000010B5FCF70C
:105550006DFBFEF7F5FAFEF751F9002280211548A0
:10556000FCF750FB00224FF480411348FCF74AFB44
:10557000012251031148FCF745FBFEF71DF91048C5
:1055800000F0F2F900210E48FBF78AFEFEF7E0F981
:1055900008220C490C48FEF761F840F2833140F2D2
:1055A000AF40FEF769FB40F283316320FEF782FBD8
:1055B00010BD00000010024000140240001802401C
:1055C00090110020A30000206817002010B5224889
:1055D00090ED001A2148D0ED000A214890ED000A14
:1055E00041F2883341F6583203211E48FEF748FA4B
:1055F0001D4890ED001A1D48D0ED000A1C4890EDA2
:10560000000A40F6B8331A4603211A48FEF738FA62
:10561000194890ED001A1948D0ED000A184890ED8D
:10562000000A41F2883341F6583203210D48D83040
:10563000FEF726FA134890ED001A1348D0ED000A41
:10564000124890ED000A40F6B8331A460321094883
:10565000D830FEF715FA10BDC0000020BC000020B5
:10566000B8000020C4040020CC000020C8000020A6
:10567000C40000203C020020D8000020D4000020FC
:10568000D0000020E4000020E0000020DC0000202A
:1056900010B5584800785849088008460088002806
:1056A0007ED056480068404200EE100AB8EEC00AAC
:1056B000534880ED000A01215248FCF79BFA5249F9
:1056C000088005E001214F48FCF794FA4E49088014
:1056D0004D4800880028F5D19FED4C0A484880EDE0
:1056E000000A012202214748FCF78CFA4FF47A7035
:1056F000FCF756F9012220214548FCF783FA4FF4C4
:105700009660FCF74DF93D480068404200EE100AF3
:10571000B8EEC00A3A4880ED000A10213C48FCF778
:1057200069FA3949488005E010213948FCF762FAE6
:1057300035494880344840880028F5D19FED330A28
:105740002F4880ED000A002202212E48FCF75AFA69
:105750004FF4C870FCF724F9012240212C48FCF7D3
:1057600051FA4FF41670FCF71BF90022402128482B
:10577000FCF748FA012202212248FCF743FA4FF4D1
:105780007A70FCF70DF9002220212148FCF73AFA43
:105790004FF4C870FCF704F900220221194800E018
:1057A00026E0FCF72FFA9FED1B0A154880ED000A52
:1057B0004FF480511648FCF71DFA1349888006E023
:1057C0004FF480511248FCF715FA0F4988800E48B3
:1057D00080880028F4D19FED0D0A094880ED000A69
:1057E0009FED0A0A0C4880ED000A0020024908805B
:1057F00010BD0000AB0000208400002098000020B5
:1058000078000020001402408C00002000000000FE
:10581000001002400000FA45800000208289C28109
:105820004A6B527D4B6B1B7D42EA032282814A6B9D
:10583000D37D927D43EA022212B200EE102AB8EE26
:10584000C00A80ED010A90ED010ABDEEC00A10EE1B
:10585000102A12B202804A6B537E127E43EA022261
:1058600012B26FF0040392FBF3F212B202814A6BA0
:10587000927E82728289C389D21AB2F5805F03DD7B
:105880004269521E426108E08289C389D21A12F528
:10589000805F02DA4269521C42618389426903EBEC
:1058A0004232826170474A6B527D4B6B1B7D42EAEC
:1058B000032282818289028270470000FFF746FE40
:1058C000FFF784FE41E0FFF7E3FE204890ED000A79
:1058D000F3EE030A20EE200ADFED1D0A20EE200A77
:1058E000DFED1C0A80EE201A1B4880ED001A1B48D1
:1058F00090ED360AB8EEC00A174880ED010A184844
:1059000090ED7B0A144880ED020A1448B0F9C000FB
:1059100000EE100AB8EEC00A0F4880ED030A1148E5
:1059200090ED7B0A0C4880ED040A0C48B0F9C800E1
:1059300000EE100AB8EEC00A074880ED050A0348D9
:1059400090ED000A044880ED060ABCE70C00002038
:10595000000000460000B44310000020500F00205B
:105960003C020020C404002010B58AB00446002088
:105970000590069001200790002000900190029071
:10598000039004900E20099001200890694620465B
:10599000FBF78EF90E20059069462046FBF788F943
:1059A0000748844203D107482063074860630748DB
:1059B000844203D106482063064860630AB010BDE4
:1059C0009011002090120020AC120020D011002075
:1059D000D0120020EC12002000B50146F0EE401A73
:1059E000B0EE602AC1ED081A81ED052A32EE610A97
:1059F00081ED0B0A91ED140AB5EEC00AF1EE10FA32
:105A000017D091ED0B0AB5EEC00AF1EE10FA02DDE7
:105A100091ED0B0A03E091ED0B0AB1EE400AD1EDD6
:105A2000140AB4EEE00AF1EE10FA02DD9FED6E0A00
:105A300000BD91ED150AB5EEC00AF1EE10FA17D0CF
:105A400091ED0B0AB5EEC00AF1EE10FA02DD91ED10
:105A50000B0A03E091ED0B0AB1EE400AD1ED150AF5
:105A6000B4EEE00AF1EE10FA02D29FED5F0ADFE732
:105A7000886D032842D191ED000AD1ED0B0A20EE8A
:105A8000200A81ED0C0A91ED0D0AD1ED010A91ED8C
:105A90000B1A00EE810A81ED0D0A91ED0B0AD1ED92
:105AA0000A0A30EE600AD1ED020A20EE200A81EDEA
:105AB0000E0AD1ED180AF8EE600AB0EE600A01F1A4
:105AC0003400FFF72BFD91ED0C0AD1ED0D0A30EEFD
:105AD000200AD1ED0E0A30EE200A81ED0F0AD1ED39
